{
  "contractName": "MarketPlace",
  "abi": [
    {
      "inputs": [
        {
          "internalType": "address",
          "name": "owner_",
          "type": "address"
        }
      ],
      "stateMutability": "nonpayable",
      "type": "constructor"
    },
    {
      "inputs": [],
      "name": "contentToken",
      "outputs": [
        {
          "internalType": "address",
          "name": "",
          "type": "address"
        }
      ],
      "stateMutability": "view",
      "type": "function"
    },
    {
      "inputs": [],
      "name": "owner",
      "outputs": [
        {
          "internalType": "address",
          "name": "",
          "type": "address"
        }
      ],
      "stateMutability": "view",
      "type": "function"
    },
    {
      "inputs": [
        {
          "internalType": "address",
          "name": "contentToken_",
          "type": "address"
        }
      ],
      "name": "setContentTokenAddress",
      "outputs": [],
      "stateMutability": "nonpayable",
      "type": "function"
    },
    {
      "inputs": [
        {
          "internalType": "uint256",
          "name": "tokenID",
          "type": "uint256"
        }
      ],
      "name": "buyTokenFromCreator",
      "outputs": [],
      "stateMutability": "payable",
      "type": "function"
    },
    {
      "inputs": [
        {
          "internalType": "uint256",
          "name": "tokenID",
          "type": "uint256"
        },
        {
          "internalType": "uint256",
          "name": "price",
          "type": "uint256"
        }
      ],
      "name": "sellToken",
      "outputs": [],
      "stateMutability": "nonpayable",
      "type": "function"
    },
    {
      "inputs": [
        {
          "internalType": "uint256",
          "name": "tokenID",
          "type": "uint256"
        }
      ],
      "name": "getLowestPriceAndSeller",
      "outputs": [
        {
          "internalType": "uint256",
          "name": "",
          "type": "uint256"
        },
        {
          "internalType": "address",
          "name": "",
          "type": "address"
        }
      ],
      "stateMutability": "view",
      "type": "function"
    },
    {
      "inputs": [
        {
          "internalType": "uint256",
          "name": "tokenID",
          "type": "uint256"
        },
        {
          "internalType": "address",
          "name": "from",
          "type": "address"
        }
      ],
      "name": "buyTokenFromMarket",
      "outputs": [],
      "stateMutability": "payable",
      "type": "function"
    }
  ],
  "bytecode": "0x60806040523480156200001157600080fd5b506040516200180a3803806200180a8339818101604052810190620000379190620000e9565b80600160006101000a81548173ffffffffffffffffffffffffffffffffffffffff021916908373ffffffffffffffffffffffffffffffffffffffff160217905550506200011b565b600080fd5b600073ffffffffffffffffffffffffffffffffffffffff82169050919050565b6000620000b18262000084565b9050919050565b620000c381620000a4565b8114620000cf57600080fd5b50565b600081519050620000e381620000b8565b92915050565b6000602082840312156200010257620001016200007f565b5b60006200011284828501620000d2565b91505092915050565b6116df806200012b6000396000f3fe6080604052600436106100705760003560e01c80631897bcf31161004e5780631897bcf3146100fa57806370d52ae7146101235780638da5cb5b1461013f578063904300351461016a57610070565b80630b99258714610075578063135133df146100a057806314e53951146100de575b600080fd5b34801561008157600080fd5b5061008a610193565b6040516100979190610e1d565b60405180910390f35b3480156100ac57600080fd5b506100c760048036038101906100c29190610e73565b6101b7565b6040516100d5929190610eaf565b60405180910390f35b6100f860048036038101906100f39190610e73565b6104d4565b005b34801561010657600080fd5b50610121600480360381019061011c9190610ed8565b6106e5565b005b61013d60048036038101906101389190610f44565b610957565b005b34801561014b57600080fd5b50610154610ce3565b6040516101619190610e1d565b60405180910390f35b34801561017657600080fd5b50610191600480360381019061018c9190610f84565b610d09565b005b60008054906101000a900473ffffffffffffffffffffffffffffffffffffffff1681565b6000806000600360008581526020019081526020016000208054905011610213576040517f08c379a000000000000000000000000000000000000000000000000000000000815260040161020a9061100e565b60405180910390fd5b60006003600085815260200190815260200160002080549050905060007fffffffffffffffffffffffffffffffffffffffffffffffffffffffffffffffff90506000805b838160ff1610156104c557600260008881526020019081526020016000206000600360008a81526020019081526020016000208360ff168154811061029f5761029e61102e565b5b9060005260206000200160009054906101000a900473ffffffffffffffffffffffffffffffffffffffff1673ffffffffffffffffffffffffffffffffffffffff1673ffffffffffffffffffffffffffffffffffffffff168152602001908152602001600020548311156104b2576000600260008981526020019081526020016000206000600360008b81526020019081526020016000208460ff168154811061034b5761034a61102e565b5b9060005260206000200160009054906101000a900473ffffffffffffffffffffffffffffffffffffffff1673ffffffffffffffffffffffffffffffffffffffff1673ffffffffffffffffffffffffffffffffffffffff16815260200190815260200160002054146104b157600260008881526020019081526020016000206000600360008a81526020019081526020016000208360ff16815481106103f3576103f261102e565b5b9060005260206000200160009054906101000a900473ffffffffffffffffffffffffffffffffffffffff1673ffffffffffffffffffffffffffffffffffffffff1673ffffffffffffffffffffffffffffffffffffffff168152602001908152602001600020549250600360008881526020019081526020016000208160ff16815481106104835761048261102e565b5b9060005260206000200160009054906101000a900473ffffffffffffffffffffffffffffffffffffffff1691505b5b80806104bd90611099565b915050610257565b50818194509450505050915091565b60008060009054906101000a900473ffffffffffffffffffffffffffffffffffffffff1690506000808273ffffffffffffffffffffffffffffffffffffffff1663db7bb412856040518263ffffffff1660e01b815260040161053691906110c3565b6040805180830381865afa158015610552573d6000803e3d6000fd5b505050506040513d601f19601f820116820180604052508101906105769190611108565b91509150813410156105bd576040517f08c379a00000000000000000000000000000000000000000000000000000000081526004016105b490611194565b60405180910390fd5b6000808273ffffffffffffffffffffffffffffffffffffffff16346040516105e4906111e5565b60006040518083038185875af1925050503d8060008114610621576040519150601f19603f3d011682016040523d82523d6000602084013e610626565b606091505b50915091508161066b576040517f08c379a000000000000000000000000000000000000000000000000000000000815260040161066290611246565b60405180910390fd5b8473ffffffffffffffffffffffffffffffffffffffff1663f242432a84338960016040518563ffffffff1660e01b81526004016106ab94939291906112df565b600060405180830381600087803b1580156106c557600080fd5b505af11580156106d9573d6000803e3d6000fd5b50505050505050505050565b60008060009054906101000a900473ffffffffffffffffffffffffffffffffffffffff1690508073ffffffffffffffffffffffffffffffffffffffff1663e985e9c533306040518363ffffffff1660e01b8152600401610746929190611337565b602060405180830381865afa158015610763573d6000803e3d6000fd5b505050506040513d601f19601f820116820180604052508101906107879190611398565b6107c6576040517f08c379a00000000000000000000000000000000000000000000000000000000081526004016107bd90611437565b60405180910390fd5b60008173ffffffffffffffffffffffffffffffffffffffff1662fdd58e33866040518363ffffffff1660e01b8152600401610802929190611457565b602060405180830381865afa15801561081f573d6000803e3d6000fd5b505050506040513d601f19601f820116820180604052508101906108439190611480565b905060008111610888576040517f08c379a000000000000000000000000000000000000000000000000000000000815260040161087f9061151f565b60405180910390fd5b60036000858152602001908152602001600020339080600181540180825580915050600190039060005260206000200160009091909190916101000a81548173ffffffffffffffffffffffffffffffffffffffff021916908373ffffffffffffffffffffffffffffffffffffffff160217905550826002600086815260200190815260200160002060003373ffffffffffffffffffffffffffffffffffffffff1673ffffffffffffffffffffffffffffffffffffffff1681526020019081526020016000208190555050505050565b60008060009054906101000a900473ffffffffffffffffffffffffffffffffffffffff16905060006002600085815260200190815260200160002060008473ffffffffffffffffffffffffffffffffffffffff1673ffffffffffffffffffffffffffffffffffffffff1681526020019081526020016000205411610a10576040517f08c379a0000000000000000000000000000000000000000000000000000000008152600401610a079061158b565b60405180910390fd5b6002600084815260200190815260200160002060008373ffffffffffffffffffffffffffffffffffffffff1673ffffffffffffffffffffffffffffffffffffffff16815260200190815260200160002054341015610aa3576040517f08c379a0000000000000000000000000000000000000000000000000000000008152600401610a9a90611194565b60405180910390fd5b60008173ffffffffffffffffffffffffffffffffffffffff1662fdd58e84866040518363ffffffff1660e01b8152600401610adf929190611457565b602060405180830381865afa158015610afc573d6000803e3d6000fd5b505050506040513d601f19601f82011682018060405250810190610b209190611480565b905060008111610b65576040517f08c379a0000000000000000000000000000000000000000000000000000000008152600401610b5c9061161d565b60405180910390fd5b6000808473ffffffffffffffffffffffffffffffffffffffff1634604051610b8c906111e5565b60006040518083038185875af1925050503d8060008114610bc9576040519150601f19603f3d011682016040523d82523d6000602084013e610bce565b606091505b509150915081610c13576040517f08c379a0000000000000000000000000000000000000000000000000000000008152600401610c0a90611246565b60405180910390fd5b8373ffffffffffffffffffffffffffffffffffffffff1663f242432a86338960016040518563ffffffff1660e01b8152600401610c5394939291906112df565b600060405180830381600087803b158015610c6d57600080fd5b505af1158015610c81573d6000803e3d6000fd5b5050505060006002600088815260200190815260200160002060008773ffffffffffffffffffffffffffffffffffffffff1673ffffffffffffffffffffffffffffffffffffffff16815260200190815260200160002081905550505050505050565b600160009054906101000a900473ffffffffffffffffffffffffffffffffffffffff1681565b600160009054906101000a900473ffffffffffffffffffffffffffffffffffffffff1673ffffffffffffffffffffffffffffffffffffffff163373ffffffffffffffffffffffffffffffffffffffff1614610d99576040517f08c379a0000000000000000000000000000000000000000000000000000000008152600401610d9090611689565b60405180910390fd5b806000806101000a81548173ffffffffffffffffffffffffffffffffffffffff021916908373ffffffffffffffffffffffffffffffffffffffff16021790555050565b600073ffffffffffffffffffffffffffffffffffffffff82169050919050565b6000610e0782610ddc565b9050919050565b610e1781610dfc565b82525050565b6000602082019050610e326000830184610e0e565b92915050565b600080fd5b6000819050919050565b610e5081610e3d565b8114610e5b57600080fd5b50565b600081359050610e6d81610e47565b92915050565b600060208284031215610e8957610e88610e38565b5b6000610e9784828501610e5e565b91505092915050565b610ea981610e3d565b82525050565b6000604082019050610ec46000830185610ea0565b610ed16020830184610e0e565b9392505050565b60008060408385031215610eef57610eee610e38565b5b6000610efd85828601610e5e565b9250506020610f0e85828601610e5e565b9150509250929050565b610f2181610dfc565b8114610f2c57600080fd5b50565b600081359050610f3e81610f18565b92915050565b60008060408385031215610f5b57610f5a610e38565b5b6000610f6985828601610e5e565b9250506020610f7a85828601610f2f565b9150509250929050565b600060208284031215610f9a57610f99610e38565b5b6000610fa884828501610f2f565b91505092915050565b600082825260208201905092915050565b7f4e6f2073656c6c657220666f72207468697320746f6b656e0000000000000000600082015250565b6000610ff8601883610fb1565b915061100382610fc2565b602082019050919050565b6000602082019050818103600083015261102781610feb565b9050919050565b7f4e487b7100000000000000000000000000000000000000000000000000000000600052603260045260246000fd5b7f4e487b7100000000000000000000000000000000000000000000000000000000600052601160045260246000fd5b600060ff82169050919050565b60006110a48261108c565b915060ff8214156110b8576110b761105d565b5b600182019050919050565b60006020820190506110d86000830184610ea0565b92915050565b6000815190506110ed81610e47565b92915050565b60008151905061110281610f18565b92915050565b6000806040838503121561111f5761111e610e38565b5b600061112d858286016110de565b925050602061113e858286016110f3565b9150509250929050565b7f56616c7565206c657373207468616e20746f6b656e2070726963650000000000600082015250565b600061117e601b83610fb1565b915061118982611148565b602082019050919050565b600060208201905081810360008301526111ad81611171565b9050919050565b600081905092915050565b50565b60006111cf6000836111b4565b91506111da826111bf565b600082019050919050565b60006111f0826111c2565b9150819050919050565b7f4661696c656420746f2073656e64204574686572000000000000000000000000600082015250565b6000611230601483610fb1565b915061123b826111fa565b602082019050919050565b6000602082019050818103600083015261125f81611223565b9050919050565b6000819050919050565b6000819050919050565b600061129561129061128b84611266565b611270565b610e3d565b9050919050565b6112a58161127a565b82525050565b600082825260208201905092915050565b60006112c96000836112ab565b91506112d4826111bf565b600082019050919050565b600060a0820190506112f46000830187610e0e565b6113016020830186610e0e565b61130e6040830185610ea0565b61131b606083018461129c565b818103608083015261132c816112bc565b905095945050505050565b600060408201905061134c6000830185610e0e565b6113596020830184610e0e565b9392505050565b60008115159050919050565b61137581611360565b811461138057600080fd5b50565b6000815190506113928161136c565b92915050565b6000602082840312156113ae576113ad610e38565b5b60006113bc84828501611383565b91505092915050565b7f4d61726b657420706c616365206e6565647320746f20626520617070726f766560008201527f64206279207468652073656c6c65720000000000000000000000000000000000602082015250565b6000611421602f83610fb1565b915061142c826113c5565b604082019050919050565b6000602082019050818103600083015261145081611414565b9050919050565b600060408201905061146c6000830185610e0e565b6114796020830184610ea0565b9392505050565b60006020828403121561149657611495610e38565b5b60006114a4848285016110de565b91505092915050565b7f53656e64657220646f6573206e6f74206861766520656e6f75676820746f207360008201527f656c6c20746f6b656e7300000000000000000000000000000000000000000000602082015250565b6000611509602a83610fb1565b9150611514826114ad565b604082019050919050565b60006020820190508181036000830152611538816114fc565b9050919050565b7f4e6f2073656c6c20707269636520736574000000000000000000000000000000600082015250565b6000611575601183610fb1565b91506115808261153f565b602082019050919050565b600060208201905081810360008301526115a481611568565b9050919050565b7f53656c6c657220646f6573206e6f74206861766520656e6f75676820746f6b6560008201527f6e73000000000000000000000000000000000000000000000000000000000000602082015250565b6000611607602283610fb1565b9150611612826115ab565b604082019050919050565b60006020820190508181036000830152611636816115fa565b9050919050565b7f6f6e6c79206f776e65722063616e2063616c6c20746869730000000000000000600082015250565b6000611673601883610fb1565b915061167e8261163d565b602082019050919050565b600060208201905081810360008301526116a281611666565b905091905056fea2646970667358221220d37ca3488847adf83faf9d0da432c7e89faf355ad1458cf806b21c3584e8bd0a64736f6c634300080a0033",
  "immutableReferences": {},
  "source": "// contracts/GameItems.sol\r\n// SPDX-License-Identifier: MIT\r\npragma solidity ^0.8.10;\r\n\r\nimport \"@openzeppelin/contracts/token/ERC1155/ERC1155.sol\";\r\n\r\ninterface ChainLinkContract {\r\n    function requestMintGateAccess(uint256 tokenId, uint privateLinkId) external returns (bytes32 requestId);\r\n}\r\n\r\ncontract ContentToken is ERC1155 {\r\n    address public owner;\r\n    address public marketPlace;\r\n    uint256 public totalTypesOfTokens;\r\n    address public chainLinkContract;\r\n    \r\n    struct TokenInfo{\r\n        address creator;\r\n        string gatedURL;\r\n        uint256 tokenPrice;\r\n        bool isContentToken;\r\n    }\r\n    \r\n    mapping(address => uint256) creatorTokenMapping;\r\n    mapping(uint256 => TokenInfo) tokenInfos;\r\n    \r\n    modifier onlyOwner() {\r\n        require(msg.sender == owner, \"only owner can call this\");\r\n        _;\r\n    }\r\n    \r\n    modifier onlyCreator(uint256 tokenId){\r\n        require(msg.sender == tokenInfos[tokenId].creator, \"only creator can call this\");\r\n        _;\r\n    }\r\n    \r\n    modifier onlyMarketPlace(){\r\n        require(msg.sender == marketPlace, \"only market place can call this\");\r\n        _;\r\n    }\r\n\r\n    modifier onlyChainLink(){\r\n        require(msg.sender == chainLinkContract, \"only chainLink API contract can call this\");\r\n        _;\r\n    }\r\n\r\n    constructor(address owner_, address marketPlace_, address _chainLinkContract) ERC1155(\"\") {\r\n        owner = owner_;\r\n        marketPlace = marketPlace_;\r\n        totalTypesOfTokens = 0;\r\n        chainLinkContract = _chainLinkContract;\r\n    }\r\n    \r\n    function addNewToken(uint256 initialSupply, uint256 price, uint privatLinkId) public returns (uint256){\r\n        \r\n        if (creatorTokenMapping[msg.sender] == 0){\r\n            totalTypesOfTokens++;\r\n            uint256 tokenId = totalTypesOfTokens;\r\n            tokenInfos[tokenId].creator = msg.sender;\r\n            tokenInfos[tokenId].tokenPrice = 100;\r\n            tokenInfos[tokenId].isContentToken = false;\r\n            creatorTokenMapping[msg.sender] = tokenId;\r\n            _mint(msg.sender, tokenId, 100000000000, \"\");\r\n        }\r\n        \r\n        totalTypesOfTokens++;\r\n        uint256 tokenId = totalTypesOfTokens;\r\n        tokenInfos[tokenId].creator = msg.sender;\r\n        tokenInfos[tokenId].tokenPrice = price;\r\n        tokenInfos[tokenId].isContentToken = true;\r\n\r\n        _mint(msg.sender, tokenId, initialSupply, \"\");\r\n        setApprovalForAll(marketPlace, true);\r\n\r\n        ChainLinkContract(chainLinkContract).requestMintGateAccess(tokenId, privatLinkId);\r\n        \r\n        return tokenId;\r\n\r\n    }\r\n    \r\n    function setGatedURI(uint256 tokenID, string memory uri) external onlyChainLink{\r\n        tokenInfos[tokenID].gatedURL = uri;\r\n    }\r\n    \r\n    function getGatedURI(uint256 tokenID) public view returns(string memory){\r\n        return tokenInfos[tokenID].gatedURL;\r\n    }\r\n    \r\n    function addMoreSupply(uint256 tokenID, uint256 additionalSupply) public onlyCreator(tokenID){\r\n        _mint(msg.sender, tokenID, additionalSupply, \"\");\r\n    }\r\n    \r\n    function getTokenPriceAndCreator(uint256 tokenID) external view returns(uint256, address){\r\n        require (tokenInfos[tokenID].tokenPrice > 0, \"Token does not exist\");\r\n        return (tokenInfos[tokenID].tokenPrice, tokenInfos[tokenID].creator);\r\n    }\r\n    \r\n    function setApprovalForMarketPlace() public{\r\n        setApprovalForAll(marketPlace, true);\r\n    }\r\n}\r\n\r\n\r\ncontract MarketPlace {\r\n    address public contentToken;\r\n    address public owner;\r\n    \r\n    mapping(uint256 => mapping(address => uint256)) sellPrice;\r\n    mapping(uint256 => address[]) sellers;\r\n    \r\n    modifier onlyOwner() {\r\n        require(msg.sender == owner, \"only owner can call this\");\r\n        _;\r\n    }\r\n    \r\n    constructor(address owner_) {\r\n        owner = owner_;\r\n    }\r\n    \r\n    function setContentTokenAddress(address contentToken_) public onlyOwner{\r\n        contentToken = contentToken_;\r\n    }\r\n    \r\n    function buyTokenFromCreator(uint256 tokenID) external payable{\r\n        ContentToken c = ContentToken(contentToken);\r\n        (uint256 tokenPrice, address creator) = c.getTokenPriceAndCreator(tokenID);\r\n        \r\n        require(msg.value >= tokenPrice, \"Value less than token price\");\r\n        (bool sent, bytes memory data) = creator.call{value: msg.value}(\"\");\r\n        require(sent, \"Failed to send Ether\");\r\n        c.safeTransferFrom(creator, msg.sender, tokenID, 1, \"\");\r\n    }\r\n    \r\n    function sellToken(uint256 tokenID, uint256 price) public {\r\n        ContentToken c = ContentToken(contentToken);\r\n        \r\n        require(c.isApprovedForAll(msg.sender, address(this)), \"Market place needs to be approved by the seller\");\r\n        \r\n        uint256 balance = c.balanceOf(msg.sender, tokenID);\r\n        require(balance > 0, \"Sender does not have enough to sell tokens\");\r\n        \r\n        sellers[tokenID].push(msg.sender);\r\n        sellPrice[tokenID][msg.sender] = price;\r\n    }\r\n    \r\n    function getLowestPriceAndSeller(uint256 tokenID) public view returns(uint256, address){\r\n        require(sellers[tokenID].length > 0, \"No seller for this token\");\r\n        \r\n        uint256 totalSellers = sellers[tokenID].length;\r\n        uint256 ltp = 115792089237316195423570985008687907853269984665640564039457584007913129639935;\r\n        address ltpAddr = address(0);\r\n        for (uint8 i = 0; i < totalSellers; i++){\r\n            if (ltp > sellPrice[tokenID][sellers[tokenID][i]]){\r\n                if (sellPrice[tokenID][sellers[tokenID][i]] != 0){\r\n                    ltp = sellPrice[tokenID][sellers[tokenID][i]];\r\n                    ltpAddr = sellers[tokenID][i];\r\n                }\r\n            }\r\n        }\r\n        \r\n        return (ltp, ltpAddr);\r\n    }\r\n    \r\n    function buyTokenFromMarket(uint256 tokenID, address from) public payable{\r\n        ContentToken c = ContentToken(contentToken);\r\n        require (sellPrice[tokenID][from] > 0, \"No sell price set\");\r\n        require(msg.value >= sellPrice[tokenID][from], \"Value less than token price\");\r\n        \r\n        uint256 balance = c.balanceOf(from, tokenID);\r\n        require(balance > 0, \"Seller does not have enough tokens\");\r\n        \r\n        (bool sent, bytes memory data) = from.call{value: msg.value}(\"\");\r\n        require(sent, \"Failed to send Ether\");\r\n        c.safeTransferFrom(from, msg.sender, tokenID, 1, \"\");\r\n        \r\n        sellPrice[tokenID][from] = 0;\r\n    }\r\n}",
  "sourcePath": "/mnt/c/Users/ankit/Documents/CHAINLINK/chain-link-hackathon/dapp/contracts/token.sol",
  "compiler": {
    "name": "solc",
    "version": "0.8.10+commit.fc410830.Emscripten.clang"
  },
  "schemaVersion": "3.4.3",
  "updatedAt": "2021-11-27T12:57:49.381Z",
  "devdoc": {
    "kind": "dev",
    "methods": {},
    "version": 1
  },
  "userdoc": {
    "kind": "user",
    "methods": {},
    "version": 1
  }
}