{
  "contractName": "APIChainlink",
  "abi": [
    {
      "inputs": [],
      "stateMutability": "nonpayable",
      "type": "constructor"
    },
    {
      "anonymous": false,
      "inputs": [
        {
          "indexed": true,
          "internalType": "bytes32",
          "name": "id",
          "type": "bytes32"
        }
      ],
      "name": "ChainlinkCancelled",
      "type": "event"
    },
    {
      "anonymous": false,
      "inputs": [
        {
          "indexed": true,
          "internalType": "bytes32",
          "name": "id",
          "type": "bytes32"
        }
      ],
      "name": "ChainlinkFulfilled",
      "type": "event"
    },
    {
      "anonymous": false,
      "inputs": [
        {
          "indexed": true,
          "internalType": "bytes32",
          "name": "id",
          "type": "bytes32"
        }
      ],
      "name": "ChainlinkRequested",
      "type": "event"
    },
    {
      "inputs": [],
      "name": "mintId",
      "outputs": [
        {
          "internalType": "uint256",
          "name": "",
          "type": "uint256"
        }
      ],
      "stateMutability": "view",
      "type": "function"
    },
    {
      "inputs": [
        {
          "internalType": "bytes32",
          "name": "",
          "type": "bytes32"
        }
      ],
      "name": "requestTokenMapping",
      "outputs": [
        {
          "internalType": "uint256",
          "name": "",
          "type": "uint256"
        }
      ],
      "stateMutability": "view",
      "type": "function"
    },
    {
      "inputs": [],
      "name": "token",
      "outputs": [
        {
          "internalType": "uint256",
          "name": "",
          "type": "uint256"
        }
      ],
      "stateMutability": "view",
      "type": "function"
    },
    {
      "inputs": [],
      "name": "tokenContract",
      "outputs": [
        {
          "internalType": "address",
          "name": "",
          "type": "address"
        }
      ],
      "stateMutability": "view",
      "type": "function"
    },
    {
      "inputs": [
        {
          "internalType": "address",
          "name": "_tokenContract",
          "type": "address"
        }
      ],
      "name": "setContractAddress",
      "outputs": [],
      "stateMutability": "nonpayable",
      "type": "function"
    },
    {
      "inputs": [
        {
          "internalType": "uint256",
          "name": "tokenId",
          "type": "uint256"
        },
        {
          "internalType": "uint256",
          "name": "privateLinkId",
          "type": "uint256"
        }
      ],
      "name": "requestMintGateAccess",
      "outputs": [
        {
          "internalType": "bytes32",
          "name": "requestId",
          "type": "bytes32"
        }
      ],
      "stateMutability": "nonpayable",
      "type": "function"
    },
    {
      "inputs": [
        {
          "internalType": "bytes32",
          "name": "_requestId",
          "type": "bytes32"
        },
        {
          "internalType": "uint256",
          "name": "gatedURLId",
          "type": "uint256"
        }
      ],
      "name": "fulfill",
      "outputs": [],
      "stateMutability": "nonpayable",
      "type": "function"
    }
  ],
  "bytecode": "0x608060405260016004553480156200001657600080fd5b5062000027620000fa60201b60201c565b73c57b33452b4f7bb189bb5afae9cc4aba1f7a4fd8600760006101000a81548173ffffffffffffffffffffffffffffffffffffffff021916908373ffffffffffffffffffffffffffffffffffffffff1602179055507f643532373064316333313139343164306230386265616432316665613737343760088190555067016345785d8a00006009819055506000600a60006101000a81548173ffffffffffffffffffffffffffffffffffffffff021916908373ffffffffffffffffffffffffffffffffffffffff16021790555062000272565b6200019073c89bd4e1632d3a43cb03aaad5262cbe4038bc57173ffffffffffffffffffffffffffffffffffffffff166338cc48316040518163ffffffff1660e01b8152600401602060405180830381865afa1580156200015e573d6000803e3d6000fd5b505050506040513d601f19601f8201168201806040525081019062000184919062000240565b6200019260201b60201c565b565b80600260006101000a81548173ffffffffffffffffffffffffffffffffffffffff021916908373ffffffffffffffffffffffffffffffffffffffff16021790555050565b600080fd5b600073ffffffffffffffffffffffffffffffffffffffff82169050919050565b60006200020882620001db565b9050919050565b6200021a81620001fb565b81146200022657600080fd5b50565b6000815190506200023a816200020f565b92915050565b600060208284031215620002595762000258620001d6565b5b6000620002698482850162000229565b91505092915050565b611c7b80620002826000396000f3fe608060405234801561001057600080fd5b506004361061007d5760003560e01c80637d3431cb1161005b5780637d3431cb146100d8578063d385f7f514610108578063fc0c546a14610138578063fe90e5bc146101565761007d565b80634357855e14610082578063477bddaa1461009e57806355a373d6146100ba575b600080fd5b61009c60048036038101906100979190611001565b610174565b005b6100b860048036038101906100b3919061109f565b61033a565b005b6100c26103ee565b6040516100cf91906110db565b60405180910390f35b6100f260048036038101906100ed91906110f6565b610414565b6040516100ff9190611132565b60405180910390f35b610122600480360381019061011d919061114d565b61042c565b60405161012f919061119c565b60405180910390f35b61014061059b565b60405161014d9190611132565b60405180910390f35b61015e6105a1565b60405161016b9190611132565b60405180910390f35b816005600082815260200190815260200160002060009054906101000a900473ffffffffffffffffffffffffffffffffffffffff1673ffffffffffffffffffffffffffffffffffffffff163373ffffffffffffffffffffffffffffffffffffffff1614610216576040517f08c379a000000000000000000000000000000000000000000000000000000000815260040161020d9061123a565b60405180910390fd5b6005600082815260200190815260200160002060006101000a81549073ffffffffffffffffffffffffffffffffffffffff0219169055807f7cc135e0cebb02c3480ae5d74d377283180a2601f8f644edf7987b009316c63a60405160405180910390a281600681905550600c600084815260200190815260200160002054600b81905550600a60009054906101000a900473ffffffffffffffffffffffffffffffffffffffff1673ffffffffffffffffffffffffffffffffffffffff16635e69e8a0600b546102e66006546105a7565b6040518363ffffffff1660e01b81526004016103039291906112e2565b600060405180830381600087803b15801561031d57600080fd5b505af1158015610331573d6000803e3d6000fd5b50505050505050565b600073ffffffffffffffffffffffffffffffffffffffff168173ffffffffffffffffffffffffffffffffffffffff1614156103aa576040517f08c379a00000000000000000000000000000000000000000000000000000000081526004016103a19061135e565b60405180910390fd5b80600a60006101000a81548173ffffffffffffffffffffffffffffffffffffffff021916908373ffffffffffffffffffffffffffffffffffffffff16021790555050565b600a60009054906101000a900473ffffffffffffffffffffffffffffffffffffffff1681565b600c6020528060005260406000206000915090505481565b60008061044360085430634357855e60e01b610730565b90506000610450856105a7565b610459856105a7565b60405160200161046a9291906114c4565b60405160208183030381529060405290506104c56040518060400160405280600381526020017f676574000000000000000000000000000000000000000000000000000000000081525082846107619092919063ffffffff16565b6105446040518060400160405280600481526020017f70617468000000000000000000000000000000000000000000000000000000008152506040518060400160405280600381526020017f7572690000000000000000000000000000000000000000000000000000000000815250846107619092919063ffffffff16565b6000610575600760009054906101000a900473ffffffffffffffffffffffffffffffffffffffff1684600954610794565b905085600c60008381526020019081526020016000208190555080935050505092915050565b600b5481565b60065481565b606060008214156105ef576040518060400160405280600181526020017f3000000000000000000000000000000000000000000000000000000000000000815250905061072b565b600082905060005b6000821461062157808061060a90611538565b915050600a8261061a91906115b0565b91506105f7565b60008167ffffffffffffffff81111561063d5761063c6115e1565b5b6040519080825280601f01601f19166020018201604052801561066f5781602001600182028036833780820191505090505b50905060008290505b600086146107235760018161068d9190611610565b90506000600a808861069f91906115b0565b6106a99190611644565b876106b49190611610565b60306106c091906116ab565b905060008160f81b9050808484815181106106de576106dd6116e2565b5b60200101907effffffffffffffffffffffffffffffffffffffffffffffffffffffffffffff1916908160001a905350600a8861071a91906115b0565b97505050610678565b819450505050505b919050565b610738610f09565b610740610f09565b610757858585846107b4909392919063ffffffff16565b9150509392505050565b61077882846080015161086490919063ffffffff16565b61078f81846080015161086490919063ffffffff16565b505050565b60006107ab8484846001634042994660e01b610889565b90509392505050565b6107bc610f09565b6107cc8560800151610100610ae2565b508385600001818152505082856020019073ffffffffffffffffffffffffffffffffffffffff16908173ffffffffffffffffffffffffffffffffffffffff16815250508185604001907bffffffffffffffffffffffffffffffffffffffffffffffffffffffff191690817bffffffffffffffffffffffffffffffffffffffffffffffffffffffff191681525050849050949350505050565b6108718260038351610b4c565b6108848183610c9190919063ffffffff16565b505050565b6000306004546040516020016108a09291906117ca565b604051602081830303815290604052805190602001209050600454856060018181525050856005600083815260200190815260200160002060006101000a81548173ffffffffffffffffffffffffffffffffffffffff021916908373ffffffffffffffffffffffffffffffffffffffff160217905550807fb5e6e01e79f91267dc17b4e6314d5d4d03593d2ceee0fbb452b750bd70ea5af960405160405180910390a2600082600080886000015189602001518a604001518b606001518a8d608001516000015160405160240161097e989796959493929190611886565b604051602081830303815290604052907bffffffffffffffffffffffffffffffffffffffffffffffffffffffff19166020820180517bffffffffffffffffffffffffffffffffffffffffffffffffffffffff83818316178352505050509050600260009054906101000a900473ffffffffffffffffffffffffffffffffffffffff1673ffffffffffffffffffffffffffffffffffffffff16634000aea08887846040518463ffffffff1660e01b8152600401610a3c9392919061190b565b6020604051808303816000875af1158015610a5b573d6000803e3d6000fd5b505050506040513d601f19601f82011682018060405250810190610a7f9190611981565b610abe576040517f08c379a0000000000000000000000000000000000000000000000000000000008152600401610ab590611a20565b60405180910390fd5b600160046000828254610ad19190611a40565b925050819055505095945050505050565b610aea610f76565b6000602083610af99190611a96565b14610b2557602082610b0b9190611a96565b6020610b179190611610565b82610b229190611a40565b91505b81836020018181525050604051808452600081528281016020016040525082905092915050565b60178111610b7957610b738160058460ff16901b60ff161784610cb390919063ffffffff16565b50610c8c565b60ff8111610bbb57610b9e601860058460ff16901b1784610cb390919063ffffffff16565b50610bb581600185610cd39092919063ffffffff16565b50610c8b565b61ffff8111610bfe57610be1601960058460ff16901b1784610cb390919063ffffffff16565b50610bf881600285610cd39092919063ffffffff16565b50610c8a565b63ffffffff8111610c4357610c26601a60058460ff16901b1784610cb390919063ffffffff16565b50610c3d81600485610cd39092919063ffffffff16565b50610c89565b67ffffffffffffffff8111610c8857610c6f601b60058460ff16901b1784610cb390919063ffffffff16565b50610c8681600885610cd39092919063ffffffff16565b505b5b5b5b5b505050565b610c99610f76565b610cab83846000015151848551610cf5565b905092915050565b610cbb610f76565b610ccb8384600001515184610de4565b905092915050565b610cdb610f76565b610cec848560000151518585610e3b565b90509392505050565b610cfd610f76565b8251821115610d0b57600080fd5b84602001518285610d1c9190611a40565b1115610d5157610d50856002610d4188602001518887610d3c9190611a40565b610ec9565b610d4b9190611644565b610ee5565b5b600080865180518760208301019350808887011115610d705787860182525b60208701925050505b60208410610db75780518252602082610d929190611a40565b9150602081610da19190611a40565b9050602084610db09190611610565b9350610d79565b60006001856020036101000a03905080198251168184511681811785525050508692505050949350505050565b610dec610f76565b83602001518310610e1257610e118460028660200151610e0c9190611644565b610ee5565b5b8351805160208583010184815381861415610e2e576001820183525b5050508390509392505050565b610e43610f76565b84602001518483610e549190611a40565b1115610e7c57610e7b8560028685610e6c9190611a40565b610e769190611644565b610ee5565b5b6000600183610100610e8e9190611bfa565b610e989190611610565b90508551838682010185831982511617815281518588011115610ebb5784870182525b505085915050949350505050565b600081831115610edb57829050610edf565b8190505b92915050565b600082600001519050610ef88383610ae2565b50610f038382610c91565b50505050565b6040518060a0016040528060008019168152602001600073ffffffffffffffffffffffffffffffffffffffff16815260200160007bffffffffffffffffffffffffffffffffffffffffffffffffffffffff1916815260200160008152602001610f70610f76565b81525090565b604051806040016040528060608152602001600081525090565b600080fd5b6000819050919050565b610fa881610f95565b8114610fb357600080fd5b50565b600081359050610fc581610f9f565b92915050565b6000819050919050565b610fde81610fcb565b8114610fe957600080fd5b50565b600081359050610ffb81610fd5565b92915050565b6000806040838503121561101857611017610f90565b5b600061102685828601610fb6565b925050602061103785828601610fec565b9150509250929050565b600073ffffffffffffffffffffffffffffffffffffffff82169050919050565b600061106c82611041565b9050919050565b61107c81611061565b811461108757600080fd5b50565b60008135905061109981611073565b92915050565b6000602082840312156110b5576110b4610f90565b5b60006110c38482850161108a565b91505092915050565b6110d581611061565b82525050565b60006020820190506110f060008301846110cc565b92915050565b60006020828403121561110c5761110b610f90565b5b600061111a84828501610fb6565b91505092915050565b61112c81610fcb565b82525050565b60006020820190506111476000830184611123565b92915050565b6000806040838503121561116457611163610f90565b5b600061117285828601610fec565b925050602061118385828601610fec565b9150509250929050565b61119681610f95565b82525050565b60006020820190506111b1600083018461118d565b92915050565b600082825260208201905092915050565b7f536f75726365206d75737420626520746865206f7261636c65206f662074686560008201527f2072657175657374000000000000000000000000000000000000000000000000602082015250565b60006112246028836111b7565b915061122f826111c8565b604082019050919050565b6000602082019050818103600083015261125381611217565b9050919050565b600081519050919050565b60005b83811015611283578082015181840152602081019050611268565b83811115611292576000848401525b50505050565b6000601f19601f8301169050919050565b60006112b48261125a565b6112be81856111b7565b93506112ce818560208601611265565b6112d781611298565b840191505092915050565b60006040820190506112f76000830185611123565b818103602083015261130981846112a9565b90509392505050565b7f416c726561647920696e697469616c697a656400000000000000000000000000600082015250565b60006113486013836111b7565b915061135382611312565b602082019050919050565b600060208201905081810360008301526113778161133b565b9050919050565b600081905092915050565b7f68747470733a2f2f636861696e2d6c696e6b2d6861636b6174686f6e2e68657260008201527f6f6b756170702e636f6d2f63726561746547617465644163636573732f000000602082015250565b60006113e5603d8361137e565b91506113f082611389565b603d82019050919050565b7f3f746f6b656e49643d0000000000000000000000000000000000000000000000600082015250565b600061143160098361137e565b915061143c826113fb565b600982019050919050565b60006114528261125a565b61145c818561137e565b935061146c818560208601611265565b80840191505092915050565b7f26707269766174654c696e6b49643d0000000000000000000000000000000000600082015250565b60006114ae600f8361137e565b91506114b982611478565b600f82019050919050565b60006114cf826113d8565b91506114da82611424565b91506114e68285611447565b91506114f1826114a1565b91506114fd8284611447565b91508190509392505050565b7f4e487b7100000000000000000000000000000000000000000000000000000000600052601160045260246000fd5b600061154382610fcb565b91507fffffffffffffffffffffffffffffffffffffffffffffffffffffffffffffffff82141561157657611575611509565b5b600182019050919050565b7f4e487b7100000000000000000000000000000000000000000000000000000000600052601260045260246000fd5b60006115bb82610fcb565b91506115c683610fcb565b9250826115d6576115d5611581565b5b828204905092915050565b7f4e487b7100000000000000000000000000000000000000000000000000000000600052604160045260246000fd5b600061161b82610fcb565b915061162683610fcb565b92508282101561163957611638611509565b5b828203905092915050565b600061164f82610fcb565b915061165a83610fcb565b9250817fffffffffffffffffffffffffffffffffffffffffffffffffffffffffffffffff048311821515161561169357611692611509565b5b828202905092915050565b600060ff82169050919050565b60006116b68261169e565b91506116c18361169e565b92508260ff038211156116d7576116d6611509565b5b828201905092915050565b7f4e487b7100000000000000000000000000000000000000000000000000000000600052603260045260246000fd5b6000819050919050565b600061173661173161172c84611041565b611711565b611041565b9050919050565b60006117488261171b565b9050919050565b600061175a8261173d565b9050919050565b60008160601b9050919050565b600061177982611761565b9050919050565b600061178b8261176e565b9050919050565b6117a361179e8261174f565b611780565b82525050565b6000819050919050565b6117c46117bf82610fcb565b6117a9565b82525050565b60006117d68285611792565b6014820191506117e682846117b3565b6020820191508190509392505050565b60007fffffffff0000000000000000000000000000000000000000000000000000000082169050919050565b61182b816117f6565b82525050565b600081519050919050565b600082825260208201905092915050565b600061185882611831565b611862818561183c565b9350611872818560208601611265565b61187b81611298565b840191505092915050565b60006101008201905061189c600083018b6110cc565b6118a9602083018a611123565b6118b6604083018961118d565b6118c360608301886110cc565b6118d06080830187611822565b6118dd60a0830186611123565b6118ea60c0830185611123565b81810360e08301526118fc818461184d565b90509998505050505050505050565b600060608201905061192060008301866110cc565b61192d6020830185611123565b818103604083015261193f818461184d565b9050949350505050565b60008115159050919050565b61195e81611949565b811461196957600080fd5b50565b60008151905061197b81611955565b92915050565b60006020828403121561199757611996610f90565b5b60006119a58482850161196c565b91505092915050565b7f756e61626c6520746f207472616e73666572416e6443616c6c20746f206f726160008201527f636c650000000000000000000000000000000000000000000000000000000000602082015250565b6000611a0a6023836111b7565b9150611a15826119ae565b604082019050919050565b60006020820190508181036000830152611a39816119fd565b9050919050565b6000611a4b82610fcb565b9150611a5683610fcb565b9250827fffffffffffffffffffffffffffffffffffffffffffffffffffffffffffffffff03821115611a8b57611a8a611509565b5b828201905092915050565b6000611aa182610fcb565b9150611aac83610fcb565b925082611abc57611abb611581565b5b828206905092915050565b60008160011c9050919050565b6000808291508390505b6001851115611b1e57808604811115611afa57611af9611509565b5b6001851615611b095780820291505b8081029050611b1785611ac7565b9450611ade565b94509492505050565b600082611b375760019050611bf3565b81611b455760009050611bf3565b8160018114611b5b5760028114611b6557611b94565b6001915050611bf3565b60ff841115611b7757611b76611509565b5b8360020a915084821115611b8e57611b8d611509565b5b50611bf3565b5060208310610133831016604e8410600b8410161715611bc95782820a905083811115611bc457611bc3611509565b5b611bf3565b611bd68484846001611ad4565b92509050818404811115611bed57611bec611509565b5b81810290505b9392505050565b6000611c0582610fcb565b9150611c1083610fcb565b9250611c3d7fffffffffffffffffffffffffffffffffffffffffffffffffffffffffffffffff8484611b27565b90509291505056fea264697066735822122026a56c37859e55fd252fb4919ac76c8f3757c72dad168d22ca94e94ef116e32064736f6c634300080a0033",
  "immutableReferences": {},
  "source": "// SPDX-License-Identifier: MIT\r\npragma solidity ^0.8.7;\r\n\r\nimport \"@chainlink/contracts/src/v0.8/ChainlinkClient.sol\";\r\n\r\n\r\ninterface ITokenContract {\r\n    function setGatedURI(uint256 tokenID, string memory uri) external;\r\n}\r\n\r\ncontract APIChainlink is ChainlinkClient {\r\n\r\n    using Chainlink for Chainlink.Request;\r\n\r\n    uint256 public mintId;\r\n\r\n    address private oracle;\r\n    bytes32 private jobId;\r\n    uint256 private fee;\r\n\r\n    address public tokenContract;\r\n    uint256 public token;\r\n    mapping(bytes32 => uint) public requestTokenMapping;\r\n\r\n\r\n    constructor() {\r\n        setPublicChainlinkToken();\r\n        oracle = 0xc57B33452b4F7BB189bB5AfaE9cc4aBa1f7a4FD8;\r\n        jobId = \"d5270d1c311941d0b08bead21fea7747\";\r\n        fee = 0.1 * 10 ** 18; // (Varies by network and job)\r\n        tokenContract = address(0);\r\n    }\r\n\r\n    function setContractAddress(address _tokenContract) public {\r\n        require(_tokenContract != address(0), \"Already initialized\");\r\n        tokenContract = _tokenContract;\r\n    }\r\n\r\n    function requestMintGateAccess(uint256 tokenId, uint privateLinkId) external returns (bytes32 requestId)\r\n    {\r\n        Chainlink.Request memory request = buildChainlinkRequest(jobId, address(this), this.fulfill.selector);\r\n\r\n        string memory x = string(abi.encodePacked(\"https://chain-link-hackathon.herokuapp.com/createGatedAccess/\", \"?tokenId=\", uint2str(tokenId), \"&privateLinkId=\", uint2str(privateLinkId)));\r\n        request.add(\"get\", x);\r\n        request.add(\"path\", \"uri\");\r\n\r\n        // Sends the request\r\n        bytes32 requestID = sendChainlinkRequestTo(oracle, request, fee);\r\n        requestTokenMapping[requestID] = tokenId;\r\n        return requestID;\r\n    }\r\n\r\n    function fulfill(bytes32 _requestId, uint256 gatedURLId) public recordChainlinkFulfillment(_requestId)\r\n    {\r\n        mintId = gatedURLId;\r\n        token = requestTokenMapping[_requestId];\r\n        ITokenContract(tokenContract).setGatedURI(token, uint2str(mintId));\r\n    }\r\n\r\n\r\n    // Helper function to convert uint to string\r\n    function uint2str(uint _i) internal pure returns (string memory _uintAsString) {\r\n\r\n        if (_i == 0) {\r\n            return \"0\";\r\n        }\r\n        uint j = _i;\r\n        uint len;\r\n        while (j != 0) {\r\n            len++;\r\n            j /= 10;\r\n        }\r\n        bytes memory bstr = new bytes(len);\r\n        uint k = len;\r\n        while (_i != 0) {\r\n            k = k-1;\r\n            uint8 temp = (48 + uint8(_i - _i / 10 * 10));\r\n            bytes1 b1 = bytes1(temp);\r\n            bstr[k] = b1;\r\n            _i /= 10;\r\n        }\r\n        return string(bstr);\r\n    }\r\n\r\n}",
  "sourcePath": "/mnt/c/Users/ankit/Documents/CHAINLINK/chain-link-hackathon/dapp/contracts/APIChainLink.sol",
  "compiler": {
    "name": "solc",
    "version": "0.8.10+commit.fc410830.Emscripten.clang"
  },
  "schemaVersion": "3.4.3",
  "updatedAt": "2021-11-27T12:57:49.114Z",
  "devdoc": {
    "kind": "dev",
    "methods": {},
    "version": 1
  },
  "userdoc": {
    "kind": "user",
    "methods": {},
    "version": 1
  }
}