{
  "contractName": "ContentToken",
  "abi": [
    {
      "inputs": [
        {
          "internalType": "address",
          "name": "owner_",
          "type": "address"
        },
        {
          "internalType": "address",
          "name": "marketPlace_",
          "type": "address"
        },
        {
          "internalType": "address",
          "name": "_chainLinkContract",
          "type": "address"
        }
      ],
      "stateMutability": "nonpayable",
      "type": "constructor"
    },
    {
      "anonymous": false,
      "inputs": [
        {
          "indexed": true,
          "internalType": "address",
          "name": "account",
          "type": "address"
        },
        {
          "indexed": true,
          "internalType": "address",
          "name": "operator",
          "type": "address"
        },
        {
          "indexed": false,
          "internalType": "bool",
          "name": "approved",
          "type": "bool"
        }
      ],
      "name": "ApprovalForAll",
      "type": "event"
    },
    {
      "anonymous": false,
      "inputs": [
        {
          "indexed": true,
          "internalType": "address",
          "name": "operator",
          "type": "address"
        },
        {
          "indexed": true,
          "internalType": "address",
          "name": "from",
          "type": "address"
        },
        {
          "indexed": true,
          "internalType": "address",
          "name": "to",
          "type": "address"
        },
        {
          "indexed": false,
          "internalType": "uint256[]",
          "name": "ids",
          "type": "uint256[]"
        },
        {
          "indexed": false,
          "internalType": "uint256[]",
          "name": "values",
          "type": "uint256[]"
        }
      ],
      "name": "TransferBatch",
      "type": "event"
    },
    {
      "anonymous": false,
      "inputs": [
        {
          "indexed": true,
          "internalType": "address",
          "name": "operator",
          "type": "address"
        },
        {
          "indexed": true,
          "internalType": "address",
          "name": "from",
          "type": "address"
        },
        {
          "indexed": true,
          "internalType": "address",
          "name": "to",
          "type": "address"
        },
        {
          "indexed": false,
          "internalType": "uint256",
          "name": "id",
          "type": "uint256"
        },
        {
          "indexed": false,
          "internalType": "uint256",
          "name": "value",
          "type": "uint256"
        }
      ],
      "name": "TransferSingle",
      "type": "event"
    },
    {
      "anonymous": false,
      "inputs": [
        {
          "indexed": false,
          "internalType": "string",
          "name": "value",
          "type": "string"
        },
        {
          "indexed": true,
          "internalType": "uint256",
          "name": "id",
          "type": "uint256"
        }
      ],
      "name": "URI",
      "type": "event"
    },
    {
      "inputs": [
        {
          "internalType": "address",
          "name": "account",
          "type": "address"
        },
        {
          "internalType": "uint256",
          "name": "id",
          "type": "uint256"
        }
      ],
      "name": "balanceOf",
      "outputs": [
        {
          "internalType": "uint256",
          "name": "",
          "type": "uint256"
        }
      ],
      "stateMutability": "view",
      "type": "function"
    },
    {
      "inputs": [
        {
          "internalType": "address[]",
          "name": "accounts",
          "type": "address[]"
        },
        {
          "internalType": "uint256[]",
          "name": "ids",
          "type": "uint256[]"
        }
      ],
      "name": "balanceOfBatch",
      "outputs": [
        {
          "internalType": "uint256[]",
          "name": "",
          "type": "uint256[]"
        }
      ],
      "stateMutability": "view",
      "type": "function"
    },
    {
      "inputs": [],
      "name": "chainLinkContract",
      "outputs": [
        {
          "internalType": "address",
          "name": "",
          "type": "address"
        }
      ],
      "stateMutability": "view",
      "type": "function"
    },
    {
      "inputs": [
        {
          "internalType": "address",
          "name": "account",
          "type": "address"
        },
        {
          "internalType": "address",
          "name": "operator",
          "type": "address"
        }
      ],
      "name": "isApprovedForAll",
      "outputs": [
        {
          "internalType": "bool",
          "name": "",
          "type": "bool"
        }
      ],
      "stateMutability": "view",
      "type": "function"
    },
    {
      "inputs": [],
      "name": "marketPlace",
      "outputs": [
        {
          "internalType": "address",
          "name": "",
          "type": "address"
        }
      ],
      "stateMutability": "view",
      "type": "function"
    },
    {
      "inputs": [],
      "name": "owner",
      "outputs": [
        {
          "internalType": "address",
          "name": "",
          "type": "address"
        }
      ],
      "stateMutability": "view",
      "type": "function"
    },
    {
      "inputs": [
        {
          "internalType": "address",
          "name": "from",
          "type": "address"
        },
        {
          "internalType": "address",
          "name": "to",
          "type": "address"
        },
        {
          "internalType": "uint256[]",
          "name": "ids",
          "type": "uint256[]"
        },
        {
          "internalType": "uint256[]",
          "name": "amounts",
          "type": "uint256[]"
        },
        {
          "internalType": "bytes",
          "name": "data",
          "type": "bytes"
        }
      ],
      "name": "safeBatchTransferFrom",
      "outputs": [],
      "stateMutability": "nonpayable",
      "type": "function"
    },
    {
      "inputs": [
        {
          "internalType": "address",
          "name": "from",
          "type": "address"
        },
        {
          "internalType": "address",
          "name": "to",
          "type": "address"
        },
        {
          "internalType": "uint256",
          "name": "id",
          "type": "uint256"
        },
        {
          "internalType": "uint256",
          "name": "amount",
          "type": "uint256"
        },
        {
          "internalType": "bytes",
          "name": "data",
          "type": "bytes"
        }
      ],
      "name": "safeTransferFrom",
      "outputs": [],
      "stateMutability": "nonpayable",
      "type": "function"
    },
    {
      "inputs": [
        {
          "internalType": "address",
          "name": "operator",
          "type": "address"
        },
        {
          "internalType": "bool",
          "name": "approved",
          "type": "bool"
        }
      ],
      "name": "setApprovalForAll",
      "outputs": [],
      "stateMutability": "nonpayable",
      "type": "function"
    },
    {
      "inputs": [
        {
          "internalType": "bytes4",
          "name": "interfaceId",
          "type": "bytes4"
        }
      ],
      "name": "supportsInterface",
      "outputs": [
        {
          "internalType": "bool",
          "name": "",
          "type": "bool"
        }
      ],
      "stateMutability": "view",
      "type": "function"
    },
    {
      "inputs": [],
      "name": "totalTypesOfTokens",
      "outputs": [
        {
          "internalType": "uint256",
          "name": "",
          "type": "uint256"
        }
      ],
      "stateMutability": "view",
      "type": "function"
    },
    {
      "inputs": [
        {
          "internalType": "uint256",
          "name": "",
          "type": "uint256"
        }
      ],
      "name": "uri",
      "outputs": [
        {
          "internalType": "string",
          "name": "",
          "type": "string"
        }
      ],
      "stateMutability": "view",
      "type": "function"
    },
    {
      "inputs": [
        {
          "internalType": "uint256",
          "name": "initialSupply",
          "type": "uint256"
        },
        {
          "internalType": "uint256",
          "name": "price",
          "type": "uint256"
        },
        {
          "internalType": "uint256",
          "name": "privatLinkId",
          "type": "uint256"
        }
      ],
      "name": "addNewToken",
      "outputs": [
        {
          "internalType": "uint256",
          "name": "",
          "type": "uint256"
        }
      ],
      "stateMutability": "nonpayable",
      "type": "function"
    },
    {
      "inputs": [
        {
          "internalType": "uint256",
          "name": "tokenID",
          "type": "uint256"
        },
        {
          "internalType": "string",
          "name": "uri",
          "type": "string"
        }
      ],
      "name": "setGatedURI",
      "outputs": [],
      "stateMutability": "nonpayable",
      "type": "function"
    },
    {
      "inputs": [
        {
          "internalType": "uint256",
          "name": "tokenID",
          "type": "uint256"
        }
      ],
      "name": "getGatedURI",
      "outputs": [
        {
          "internalType": "string",
          "name": "",
          "type": "string"
        }
      ],
      "stateMutability": "view",
      "type": "function"
    },
    {
      "inputs": [
        {
          "internalType": "uint256",
          "name": "tokenID",
          "type": "uint256"
        },
        {
          "internalType": "uint256",
          "name": "additionalSupply",
          "type": "uint256"
        }
      ],
      "name": "addMoreSupply",
      "outputs": [],
      "stateMutability": "nonpayable",
      "type": "function"
    },
    {
      "inputs": [
        {
          "internalType": "uint256",
          "name": "tokenID",
          "type": "uint256"
        }
      ],
      "name": "getTokenPriceAndCreator",
      "outputs": [
        {
          "internalType": "uint256",
          "name": "",
          "type": "uint256"
        },
        {
          "internalType": "address",
          "name": "",
          "type": "address"
        }
      ],
      "stateMutability": "view",
      "type": "function"
    },
    {
      "inputs": [],
      "name": "setApprovalForMarketPlace",
      "outputs": [],
      "stateMutability": "nonpayable",
      "type": "function"
    }
  ],
  "bytecode": "0x60806040523480156200001157600080fd5b506040516200379f3803806200379f833981810160405281019062000037919062000263565b6040518060200160405280600081525062000058816200012d60201b60201c565b5082600360006101000a81548173ffffffffffffffffffffffffffffffffffffffff021916908373ffffffffffffffffffffffffffffffffffffffff16021790555081600460006101000a81548173ffffffffffffffffffffffffffffffffffffffff021916908373ffffffffffffffffffffffffffffffffffffffff160217905550600060058190555080600660006101000a81548173ffffffffffffffffffffffffffffffffffffffff021916908373ffffffffffffffffffffffffffffffffffffffff16021790555050505062000324565b80600290805190602001906200014592919062000149565b5050565b8280546200015790620002ee565b90600052602060002090601f0160209004810192826200017b5760008555620001c7565b82601f106200019657805160ff1916838001178555620001c7565b82800160010185558215620001c7579182015b82811115620001c6578251825591602001919060010190620001a9565b5b509050620001d69190620001da565b5090565b5b80821115620001f5576000816000905550600101620001db565b5090565b600080fd5b600073ffffffffffffffffffffffffffffffffffffffff82169050919050565b60006200022b82620001fe565b9050919050565b6200023d816200021e565b81146200024957600080fd5b50565b6000815190506200025d8162000232565b92915050565b6000806000606084860312156200027f576200027e620001f9565b5b60006200028f868287016200024c565b9350506020620002a2868287016200024c565b9250506040620002b5868287016200024c565b9150509250925092565b7f4e487b7100000000000000000000000000000000000000000000000000000000600052602260045260246000fd5b600060028204905060018216806200030757607f821691505b602082108114156200031e576200031d620002bf565b5b50919050565b61346b80620003346000396000f3fe608060405234801561001057600080fd5b50600436106101155760003560e01c80637c8a9e4a116100a2578063ddff9def11610071578063ddff9def146102f3578063e06b2ed714610323578063e985e9c514610341578063f242432a14610371578063f75d6eb31461038d57610115565b80637c8a9e4a1461026a5780638da5cb5b14610288578063a22cb465146102a6578063db7bb412146102c257610115565b80632e25d2a6116100e95780632e25d2a6146101b45780632eb2c2d6146101d25780634e1273f4146101ee5780635e69e8a01461021e5780636869ebcb1461023a57610115565b8062fdd58e1461011a57806301ffc9a71461014a5780630e89341c1461017a5780630f5ae8fe146101aa575b600080fd5b610134600480360381019061012f9190611e2c565b6103a9565b6040516101419190611e7b565b60405180910390f35b610164600480360381019061015f9190611eee565b610472565b6040516101719190611f36565b60405180910390f35b610194600480360381019061018f9190611f51565b610554565b6040516101a19190612017565b60405180910390f35b6101b26105e8565b005b6101bc610617565b6040516101c99190612048565b60405180910390f35b6101ec60048036038101906101e79190612260565b61063d565b005b610208600480360381019061020391906123f2565b6106de565b6040516102159190612528565b60405180910390f35b610238600480360381019061023391906125eb565b6107f7565b005b610254600480360381019061024f9190612647565b6108b6565b6040516102619190611e7b565b60405180910390f35b610272610bd6565b60405161027f9190612048565b60405180910390f35b610290610bfc565b60405161029d9190612048565b60405180910390f35b6102c060048036038101906102bb91906126c6565b610c22565b005b6102dc60048036038101906102d79190611f51565b610da3565b6040516102ea929190612706565b60405180910390f35b61030d60048036038101906103089190611f51565b610e56565b60405161031a9190612017565b60405180910390f35b61032b610efe565b6040516103389190611e7b565b60405180910390f35b61035b6004803603810190610356919061272f565b610f04565b6040516103689190611f36565b60405180910390f35b61038b6004803603810190610386919061276f565b610f98565b005b6103a760048036038101906103a29190612806565b611039565b005b60008073ffffffffffffffffffffffffffffffffffffffff168373ffffffffffffffffffffffffffffffffffffffff16141561041a576040517f08c379a0000000000000000000000000000000000000000000000000000000008152600401610411906128b8565b60405180910390fd5b60008083815260200190815260200160002060008473ffffffffffffffffffffffffffffffffffffffff1673ffffffffffffffffffffffffffffffffffffffff16815260200190815260200160002054905092915050565b60007fd9b67a26000000000000000000000000000000000000000000000000000000007bffffffffffffffffffffffffffffffffffffffffffffffffffffffff1916827bffffffffffffffffffffffffffffffffffffffffffffffffffffffff1916148061053d57507f0e89341c000000000000000000000000000000000000000000000000000000007bffffffffffffffffffffffffffffffffffffffffffffffffffffffff1916827bffffffffffffffffffffffffffffffffffffffffffffffffffffffff1916145b8061054d575061054c826110fe565b5b9050919050565b60606002805461056390612907565b80601f016020809104026020016040519081016040528092919081815260200182805461058f90612907565b80156105dc5780601f106105b1576101008083540402835291602001916105dc565b820191906000526020600020905b8154815290600101906020018083116105bf57829003601f168201915b50505050509050919050565b610615600460009054906101000a900473ffffffffffffffffffffffffffffffffffffffff166001610c22565b565b600460009054906101000a900473ffffffffffffffffffffffffffffffffffffffff1681565b610645611168565b73ffffffffffffffffffffffffffffffffffffffff168573ffffffffffffffffffffffffffffffffffffffff16148061068b575061068a85610685611168565b610f04565b5b6106ca576040517f08c379a00000000000000000000000000000000000000000000000000000000081526004016106c1906129ab565b60405180910390fd5b6106d78585858585611170565b5050505050565b60608151835114610724576040517f08c379a000000000000000000000000000000000000000000000000000000000815260040161071b90612a3d565b60405180910390fd5b6000835167ffffffffffffffff81111561074157610740612068565b5b60405190808252806020026020018201604052801561076f5781602001602082028036833780820191505090505b50905060005b84518110156107ec576107bc85828151811061079457610793612a5d565b5b60200260200101518583815181106107af576107ae612a5d565b5b60200260200101516103a9565b8282815181106107cf576107ce612a5d565b5b602002602001018181525050806107e590612abb565b9050610775565b508091505092915050565b600660009054906101000a900473ffffffffffffffffffffffffffffffffffffffff1673ffffffffffffffffffffffffffffffffffffffff163373ffffffffffffffffffffffffffffffffffffffff1614610887576040517f08c379a000000000000000000000000000000000000000000000000000000000815260040161087e90612b76565b60405180910390fd5b806008600084815260200190815260200160002060010190805190602001906108b1929190611ce1565b505050565b600080600760003373ffffffffffffffffffffffffffffffffffffffff1673ffffffffffffffffffffffffffffffffffffffff168152602001908152602001600020541415610a24576005600081548092919061091290612abb565b919050555060006005549050336008600083815260200190815260200160002060000160006101000a81548173ffffffffffffffffffffffffffffffffffffffff021916908373ffffffffffffffffffffffffffffffffffffffff1602179055506064600860008381526020019081526020016000206002018190555060006008600083815260200190815260200160002060030160006101000a81548160ff02191690831515021790555080600760003373ffffffffffffffffffffffffffffffffffffffff1673ffffffffffffffffffffffffffffffffffffffff16815260200190815260200160002081905550610a22338264174876e80060405180602001604052806000815250611484565b505b60056000815480929190610a3790612abb565b919050555060006005549050336008600083815260200190815260200160002060000160006101000a81548173ffffffffffffffffffffffffffffffffffffffff021916908373ffffffffffffffffffffffffffffffffffffffff16021790555083600860008381526020019081526020016000206002018190555060016008600083815260200190815260200160002060030160006101000a81548160ff021916908315150217905550610afd33828760405180602001604052806000815250611484565b610b2a600460009054906101000a900473ffffffffffffffffffffffffffffffffffffffff166001610c22565b600660009054906101000a900473ffffffffffffffffffffffffffffffffffffffff1673ffffffffffffffffffffffffffffffffffffffff1663d385f7f582856040518363ffffffff1660e01b8152600401610b87929190612b96565b6020604051808303816000875af1158015610ba6573d6000803e3d6000fd5b505050506040513d601f19601f82011682018060405250810190610bca9190612bf5565b50809150509392505050565b600660009054906101000a900473ffffffffffffffffffffffffffffffffffffffff1681565b600360009054906101000a900473ffffffffffffffffffffffffffffffffffffffff1681565b8173ffffffffffffffffffffffffffffffffffffffff16610c41611168565b73ffffffffffffffffffffffffffffffffffffffff161415610c98576040517f08c379a0000000000000000000000000000000000000000000000000000000008152600401610c8f90612c94565b60405180910390fd5b8060016000610ca5611168565b73ffffffffffffffffffffffffffffffffffffffff1673ffffffffffffffffffffffffffffffffffffffff16815260200190815260200160002060008473ffffffffffffffffffffffffffffffffffffffff1673ffffffffffffffffffffffffffffffffffffffff16815260200190815260200160002060006101000a81548160ff0219169083151502179055508173ffffffffffffffffffffffffffffffffffffffff16610d52611168565b73ffffffffffffffffffffffffffffffffffffffff167f17307eab39ab6107e8899845ad3d59bd9653f200f220920489ca2b5937696c3183604051610d979190611f36565b60405180910390a35050565b6000806000600860008581526020019081526020016000206002015411610dff576040517f08c379a0000000000000000000000000000000000000000000000000000000008152600401610df690612d00565b60405180910390fd5b60086000848152602001908152602001600020600201546008600085815260200190815260200160002060000160009054906101000a900473ffffffffffffffffffffffffffffffffffffffff1691509150915091565b6060600860008381526020019081526020016000206001018054610e7990612907565b80601f0160208091040260200160405190810160405280929190818152602001828054610ea590612907565b8015610ef25780601f10610ec757610100808354040283529160200191610ef2565b820191906000526020600020905b815481529060010190602001808311610ed557829003601f168201915b50505050509050919050565b60055481565b6000600160008473ffffffffffffffffffffffffffffffffffffffff1673ffffffffffffffffffffffffffffffffffffffff16815260200190815260200160002060008373ffffffffffffffffffffffffffffffffffffffff1673ffffffffffffffffffffffffffffffffffffffff16815260200190815260200160002060009054906101000a900460ff16905092915050565b610fa0611168565b73ffffffffffffffffffffffffffffffffffffffff168573ffffffffffffffffffffffffffffffffffffffff161480610fe65750610fe585610fe0611168565b610f04565b5b611025576040517f08c379a000000000000000000000000000000000000000000000000000000000815260040161101c90612d92565b60405180910390fd5b611032858585858561161a565b5050505050565b816008600082815260200190815260200160002060000160009054906101000a900473ffffffffffffffffffffffffffffffffffffffff1673ffffffffffffffffffffffffffffffffffffffff163373ffffffffffffffffffffffffffffffffffffffff16146110de576040517f08c379a00000000000000000000000000000000000000000000000000000000081526004016110d590612dfe565b60405180910390fd5b6110f933848460405180602001604052806000815250611484565b505050565b60007f01ffc9a7000000000000000000000000000000000000000000000000000000007bffffffffffffffffffffffffffffffffffffffffffffffffffffffff1916827bffffffffffffffffffffffffffffffffffffffffffffffffffffffff1916149050919050565b600033905090565b81518351146111b4576040517f08c379a00000000000000000000000000000000000000000000000000000000081526004016111ab90612e90565b60405180910390fd5b600073ffffffffffffffffffffffffffffffffffffffff168473ffffffffffffffffffffffffffffffffffffffff161415611224576040517f08c379a000000000000000000000000000000000000000000000000000000000815260040161121b90612f22565b60405180910390fd5b600061122e611168565b905061123e81878787878761189c565b60005b84518110156113ef57600085828151811061125f5761125e612a5d565b5b60200260200101519050600085838151811061127e5761127d612a5d565b5b60200260200101519050600080600084815260200190815260200160002060008b73ffffffffffffffffffffffffffffffffffffffff1673ffffffffffffffffffffffffffffffffffffffff1681526020019081526020016000205490508181101561131f576040517f08c379a000000000000000000000000000000000000000000000000000000000815260040161131690612fb4565b60405180910390fd5b81810360008085815260200190815260200160002060008c73ffffffffffffffffffffffffffffffffffffffff1673ffffffffffffffffffffffffffffffffffffffff168152602001908152602001600020819055508160008085815260200190815260200160002060008b73ffffffffffffffffffffffffffffffffffffffff1673ffffffffffffffffffffffffffffffffffffffff16815260200190815260200160002060008282546113d49190612fd4565b92505081905550505050806113e890612abb565b9050611241565b508473ffffffffffffffffffffffffffffffffffffffff168673ffffffffffffffffffffffffffffffffffffffff168273ffffffffffffffffffffffffffffffffffffffff167f4a39dc06d4c0dbc64b70af90fd698a233a518aa5d07e595d983b8c0526c8f7fb878760405161146692919061302a565b60405180910390a461147c8187878787876118a4565b505050505050565b600073ffffffffffffffffffffffffffffffffffffffff168473ffffffffffffffffffffffffffffffffffffffff1614156114f4576040517f08c379a00000000000000000000000000000000000000000000000000000000081526004016114eb906130d3565b60405180910390fd5b60006114fe611168565b905061151f8160008761151088611a7c565b61151988611a7c565b8761189c565b8260008086815260200190815260200160002060008773ffffffffffffffffffffffffffffffffffffffff1673ffffffffffffffffffffffffffffffffffffffff168152602001908152602001600020600082825461157e9190612fd4565b925050819055508473ffffffffffffffffffffffffffffffffffffffff16600073ffffffffffffffffffffffffffffffffffffffff168273ffffffffffffffffffffffffffffffffffffffff167fc3d58168c5ae7397731d063d5bbf3d657854427343f4c083240f7aacaa2d0f6287876040516115fc929190612b96565b60405180910390a461161381600087878787611af6565b5050505050565b600073ffffffffffffffffffffffffffffffffffffffff168473ffffffffffffffffffffffffffffffffffffffff16141561168a576040517f08c379a000000000000000000000000000000000000000000000000000000000815260040161168190612f22565b60405180910390fd5b6000611694611168565b90506116b48187876116a588611a7c565b6116ae88611a7c565b8761189c565b600080600086815260200190815260200160002060008873ffffffffffffffffffffffffffffffffffffffff1673ffffffffffffffffffffffffffffffffffffffff1681526020019081526020016000205490508381101561174b576040517f08c379a000000000000000000000000000000000000000000000000000000000815260040161174290612fb4565b60405180910390fd5b83810360008087815260200190815260200160002060008973ffffffffffffffffffffffffffffffffffffffff1673ffffffffffffffffffffffffffffffffffffffff168152602001908152602001600020819055508360008087815260200190815260200160002060008873ffffffffffffffffffffffffffffffffffffffff1673ffffffffffffffffffffffffffffffffffffffff16815260200190815260200160002060008282546118009190612fd4565b925050819055508573ffffffffffffffffffffffffffffffffffffffff168773ffffffffffffffffffffffffffffffffffffffff168373ffffffffffffffffffffffffffffffffffffffff167fc3d58168c5ae7397731d063d5bbf3d657854427343f4c083240f7aacaa2d0f62888860405161187d929190612b96565b60405180910390a4611893828888888888611af6565b50505050505050565b505050505050565b6118c38473ffffffffffffffffffffffffffffffffffffffff16611cce565b15611a74578373ffffffffffffffffffffffffffffffffffffffff1663bc197c8187878686866040518663ffffffff1660e01b8152600401611909959493929190613148565b6020604051808303816000875af192505050801561194557506040513d601f19601f8201168201806040525081019061194291906131c5565b60015b6119eb576119516131ff565b806308c379a014156119ae5750611966613221565b8061197157506119b0565b806040517f08c379a00000000000000000000000000000000000000000000000000000000081526004016119a59190612017565b60405180910390fd5b505b6040517f08c379a00000000000000000000000000000000000000000000000000000000081526004016119e290613329565b60405180910390fd5b63bc197c8160e01b7bffffffffffffffffffffffffffffffffffffffffffffffffffffffff1916817bffffffffffffffffffffffffffffffffffffffffffffffffffffffff191614611a72576040517f08c379a0000000000000000000000000000000000000000000000000000000008152600401611a69906133bb565b60405180910390fd5b505b505050505050565b60606000600167ffffffffffffffff811115611a9b57611a9a612068565b5b604051908082528060200260200182016040528015611ac95781602001602082028036833780820191505090505b5090508281600081518110611ae157611ae0612a5d565b5b60200260200101818152505080915050919050565b611b158473ffffffffffffffffffffffffffffffffffffffff16611cce565b15611cc6578373ffffffffffffffffffffffffffffffffffffffff1663f23a6e6187878686866040518663ffffffff1660e01b8152600401611b5b9594939291906133db565b6020604051808303816000875af1925050508015611b9757506040513d601f19601f82011682018060405250810190611b9491906131c5565b60015b611c3d57611ba36131ff565b806308c379a01415611c005750611bb8613221565b80611bc35750611c02565b806040517f08c379a0000000000000000000000000000000000000000000000000000000008152600401611bf79190612017565b60405180910390fd5b505b6040517f08c379a0000000000000000000000000000000000000000000000000000000008152600401611c3490613329565b60405180910390fd5b63f23a6e6160e01b7bffffffffffffffffffffffffffffffffffffffffffffffffffffffff1916817bffffffffffffffffffffffffffffffffffffffffffffffffffffffff191614611cc4576040517f08c379a0000000000000000000000000000000000000000000000000000000008152600401611cbb906133bb565b60405180910390fd5b505b505050505050565b600080823b905060008111915050919050565b828054611ced90612907565b90600052602060002090601f016020900481019282611d0f5760008555611d56565b82601f10611d2857805160ff1916838001178555611d56565b82800160010185558215611d56579182015b82811115611d55578251825591602001919060010190611d3a565b5b509050611d639190611d67565b5090565b5b80821115611d80576000816000905550600101611d68565b5090565b6000604051905090565b600080fd5b600080fd5b600073ffffffffffffffffffffffffffffffffffffffff82169050919050565b6000611dc382611d98565b9050919050565b611dd381611db8565b8114611dde57600080fd5b50565b600081359050611df081611dca565b92915050565b6000819050919050565b611e0981611df6565b8114611e1457600080fd5b50565b600081359050611e2681611e00565b92915050565b60008060408385031215611e4357611e42611d8e565b5b6000611e5185828601611de1565b9250506020611e6285828601611e17565b9150509250929050565b611e7581611df6565b82525050565b6000602082019050611e906000830184611e6c565b92915050565b60007fffffffff0000000000000000000000000000000000000000000000000000000082169050919050565b611ecb81611e96565b8114611ed657600080fd5b50565b600081359050611ee881611ec2565b92915050565b600060208284031215611f0457611f03611d8e565b5b6000611f1284828501611ed9565b91505092915050565b60008115159050919050565b611f3081611f1b565b82525050565b6000602082019050611f4b6000830184611f27565b92915050565b600060208284031215611f6757611f66611d8e565b5b6000611f7584828501611e17565b91505092915050565b600081519050919050565b600082825260208201905092915050565b60005b83811015611fb8578082015181840152602081019050611f9d565b83811115611fc7576000848401525b50505050565b6000601f19601f8301169050919050565b6000611fe982611f7e565b611ff38185611f89565b9350612003818560208601611f9a565b61200c81611fcd565b840191505092915050565b600060208201905081810360008301526120318184611fde565b905092915050565b61204281611db8565b82525050565b600060208201905061205d6000830184612039565b92915050565b600080fd5b7f4e487b7100000000000000000000000000000000000000000000000000000000600052604160045260246000fd5b6120a082611fcd565b810181811067ffffffffffffffff821117156120bf576120be612068565b5b80604052505050565b60006120d2611d84565b90506120de8282612097565b919050565b600067ffffffffffffffff8211156120fe576120fd612068565b5b602082029050602081019050919050565b600080fd5b6000612127612122846120e3565b6120c8565b9050808382526020820190506020840283018581111561214a5761214961210f565b5b835b81811015612173578061215f8882611e17565b84526020840193505060208101905061214c565b5050509392505050565b600082601f83011261219257612191612063565b5b81356121a2848260208601612114565b91505092915050565b600080fd5b600067ffffffffffffffff8211156121cb576121ca612068565b5b6121d482611fcd565b9050602081019050919050565b82818337600083830152505050565b60006122036121fe846121b0565b6120c8565b90508281526020810184848401111561221f5761221e6121ab565b5b61222a8482856121e1565b509392505050565b600082601f83011261224757612246612063565b5b81356122578482602086016121f0565b91505092915050565b600080600080600060a0868803121561227c5761227b611d8e565b5b600061228a88828901611de1565b955050602061229b88828901611de1565b945050604086013567ffffffffffffffff8111156122bc576122bb611d93565b5b6122c88882890161217d565b935050606086013567ffffffffffffffff8111156122e9576122e8611d93565b5b6122f58882890161217d565b925050608086013567ffffffffffffffff81111561231657612315611d93565b5b61232288828901612232565b9150509295509295909350565b600067ffffffffffffffff82111561234a57612349612068565b5b602082029050602081019050919050565b600061236e6123698461232f565b6120c8565b905080838252602082019050602084028301858111156123915761239061210f565b5b835b818110156123ba57806123a68882611de1565b845260208401935050602081019050612393565b5050509392505050565b600082601f8301126123d9576123d8612063565b5b81356123e984826020860161235b565b91505092915050565b6000806040838503121561240957612408611d8e565b5b600083013567ffffffffffffffff81111561242757612426611d93565b5b612433858286016123c4565b925050602083013567ffffffffffffffff81111561245457612453611d93565b5b6124608582860161217d565b9150509250929050565b600081519050919050565b600082825260208201905092915050565b6000819050602082019050919050565b61249f81611df6565b82525050565b60006124b18383612496565b60208301905092915050565b6000602082019050919050565b60006124d58261246a565b6124df8185612475565b93506124ea83612486565b8060005b8381101561251b57815161250288826124a5565b975061250d836124bd565b9250506001810190506124ee565b5085935050505092915050565b6000602082019050818103600083015261254281846124ca565b905092915050565b600067ffffffffffffffff82111561256557612564612068565b5b61256e82611fcd565b9050602081019050919050565b600061258e6125898461254a565b6120c8565b9050828152602081018484840111156125aa576125a96121ab565b5b6125b58482856121e1565b509392505050565b600082601f8301126125d2576125d1612063565b5b81356125e284826020860161257b565b91505092915050565b6000806040838503121561260257612601611d8e565b5b600061261085828601611e17565b925050602083013567ffffffffffffffff81111561263157612630611d93565b5b61263d858286016125bd565b9150509250929050565b6000806000606084860312156126605761265f611d8e565b5b600061266e86828701611e17565b935050602061267f86828701611e17565b925050604061269086828701611e17565b9150509250925092565b6126a381611f1b565b81146126ae57600080fd5b50565b6000813590506126c08161269a565b92915050565b600080604083850312156126dd576126dc611d8e565b5b60006126eb85828601611de1565b92505060206126fc858286016126b1565b9150509250929050565b600060408201905061271b6000830185611e6c565b6127286020830184612039565b9392505050565b6000806040838503121561274657612745611d8e565b5b600061275485828601611de1565b925050602061276585828601611de1565b9150509250929050565b600080600080600060a0868803121561278b5761278a611d8e565b5b600061279988828901611de1565b95505060206127aa88828901611de1565b94505060406127bb88828901611e17565b93505060606127cc88828901611e17565b925050608086013567ffffffffffffffff8111156127ed576127ec611d93565b5b6127f988828901612232565b9150509295509295909350565b6000806040838503121561281d5761281c611d8e565b5b600061282b85828601611e17565b925050602061283c85828601611e17565b9150509250929050565b7f455243313135353a2062616c616e636520717565727920666f7220746865207a60008201527f65726f2061646472657373000000000000000000000000000000000000000000602082015250565b60006128a2602b83611f89565b91506128ad82612846565b604082019050919050565b600060208201905081810360008301526128d181612895565b9050919050565b7f4e487b7100000000000000000000000000000000000000000000000000000000600052602260045260246000fd5b6000600282049050600182168061291f57607f821691505b60208210811415612933576129326128d8565b5b50919050565b7f455243313135353a207472616e736665722063616c6c6572206973206e6f742060008201527f6f776e6572206e6f7220617070726f7665640000000000000000000000000000602082015250565b6000612995603283611f89565b91506129a082612939565b604082019050919050565b600060208201905081810360008301526129c481612988565b9050919050565b7f455243313135353a206163636f756e747320616e6420696473206c656e67746860008201527f206d69736d617463680000000000000000000000000000000000000000000000602082015250565b6000612a27602983611f89565b9150612a32826129cb565b604082019050919050565b60006020820190508181036000830152612a5681612a1a565b9050919050565b7f4e487b7100000000000000000000000000000000000000000000000000000000600052603260045260246000fd5b7f4e487b7100000000000000000000000000000000000000000000000000000000600052601160045260246000fd5b6000612ac682611df6565b91507fffffffffffffffffffffffffffffffffffffffffffffffffffffffffffffffff821415612af957612af8612a8c565b5b600182019050919050565b7f6f6e6c7920636861696e4c696e6b2041504920636f6e74726163742063616e2060008201527f63616c6c20746869730000000000000000000000000000000000000000000000602082015250565b6000612b60602983611f89565b9150612b6b82612b04565b604082019050919050565b60006020820190508181036000830152612b8f81612b53565b9050919050565b6000604082019050612bab6000830185611e6c565b612bb86020830184611e6c565b9392505050565b6000819050919050565b612bd281612bbf565b8114612bdd57600080fd5b50565b600081519050612bef81612bc9565b92915050565b600060208284031215612c0b57612c0a611d8e565b5b6000612c1984828501612be0565b91505092915050565b7f455243313135353a2073657474696e6720617070726f76616c2073746174757360008201527f20666f722073656c660000000000000000000000000000000000000000000000602082015250565b6000612c7e602983611f89565b9150612c8982612c22565b604082019050919050565b60006020820190508181036000830152612cad81612c71565b9050919050565b7f546f6b656e20646f6573206e6f74206578697374000000000000000000000000600082015250565b6000612cea601483611f89565b9150612cf582612cb4565b602082019050919050565b60006020820190508181036000830152612d1981612cdd565b9050919050565b7f455243313135353a2063616c6c6572206973206e6f74206f776e6572206e6f7260008201527f20617070726f7665640000000000000000000000000000000000000000000000602082015250565b6000612d7c602983611f89565b9150612d8782612d20565b604082019050919050565b60006020820190508181036000830152612dab81612d6f565b9050919050565b7f6f6e6c792063726561746f722063616e2063616c6c2074686973000000000000600082015250565b6000612de8601a83611f89565b9150612df382612db2565b602082019050919050565b60006020820190508181036000830152612e1781612ddb565b9050919050565b7f455243313135353a2069647320616e6420616d6f756e7473206c656e6774682060008201527f6d69736d61746368000000000000000000000000000000000000000000000000602082015250565b6000612e7a602883611f89565b9150612e8582612e1e565b604082019050919050565b60006020820190508181036000830152612ea981612e6d565b9050919050565b7f455243313135353a207472616e7366657220746f20746865207a65726f20616460008201527f6472657373000000000000000000000000000000000000000000000000000000602082015250565b6000612f0c602583611f89565b9150612f1782612eb0565b604082019050919050565b60006020820190508181036000830152612f3b81612eff565b9050919050565b7f455243313135353a20696e73756666696369656e742062616c616e636520666f60008201527f72207472616e7366657200000000000000000000000000000000000000000000602082015250565b6000612f9e602a83611f89565b9150612fa982612f42565b604082019050919050565b60006020820190508181036000830152612fcd81612f91565b9050919050565b6000612fdf82611df6565b9150612fea83611df6565b9250827fffffffffffffffffffffffffffffffffffffffffffffffffffffffffffffffff0382111561301f5761301e612a8c565b5b828201905092915050565b6000604082019050818103600083015261304481856124ca565b9050818103602083015261305881846124ca565b90509392505050565b7f455243313135353a206d696e7420746f20746865207a65726f2061646472657360008201527f7300000000000000000000000000000000000000000000000000000000000000602082015250565b60006130bd602183611f89565b91506130c882613061565b604082019050919050565b600060208201905081810360008301526130ec816130b0565b9050919050565b600081519050919050565b600082825260208201905092915050565b600061311a826130f3565b61312481856130fe565b9350613134818560208601611f9a565b61313d81611fcd565b840191505092915050565b600060a08201905061315d6000830188612039565b61316a6020830187612039565b818103604083015261317c81866124ca565b9050818103606083015261319081856124ca565b905081810360808301526131a4818461310f565b90509695505050505050565b6000815190506131bf81611ec2565b92915050565b6000602082840312156131db576131da611d8e565b5b60006131e9848285016131b0565b91505092915050565b60008160e01c9050919050565b600060033d111561321e5760046000803e61321b6000516131f2565b90505b90565b600060443d1015613231576132b4565b613239611d84565b60043d036004823e80513d602482011167ffffffffffffffff821117156132615750506132b4565b808201805167ffffffffffffffff81111561327f57505050506132b4565b80602083010160043d03850181111561329c5750505050506132b4565b6132ab82602001850186612097565b82955050505050505b90565b7f455243313135353a207472616e7366657220746f206e6f6e204552433131353560008201527f526563656976657220696d706c656d656e746572000000000000000000000000602082015250565b6000613313603483611f89565b915061331e826132b7565b604082019050919050565b6000602082019050818103600083015261334281613306565b9050919050565b7f455243313135353a204552433131353552656365697665722072656a6563746560008201527f6420746f6b656e73000000000000000000000000000000000000000000000000602082015250565b60006133a5602883611f89565b91506133b082613349565b604082019050919050565b600060208201905081810360008301526133d481613398565b9050919050565b600060a0820190506133f06000830188612039565b6133fd6020830187612039565b61340a6040830186611e6c565b6134176060830185611e6c565b8181036080830152613429818461310f565b9050969550505050505056fea2646970667358221220326eb600ae26098733dba2fb4ffb54ad71a2dc6820e5363567b9f90583faa90364736f6c634300080a0033",
  "immutableReferences": {},
  "source": "// contracts/GameItems.sol\r\n// SPDX-License-Identifier: MIT\r\npragma solidity ^0.8.10;\r\n\r\nimport \"@openzeppelin/contracts/token/ERC1155/ERC1155.sol\";\r\n\r\ninterface ChainLinkContract {\r\n    function requestMintGateAccess(uint256 tokenId, uint privateLinkId) external returns (bytes32 requestId);\r\n}\r\n\r\ncontract ContentToken is ERC1155 {\r\n    address public owner;\r\n    address public marketPlace;\r\n    uint256 public totalTypesOfTokens;\r\n    address public chainLinkContract;\r\n    \r\n    struct TokenInfo{\r\n        address creator;\r\n        string gatedURL;\r\n        uint256 tokenPrice;\r\n        bool isContentToken;\r\n    }\r\n    \r\n    mapping(address => uint256) creatorTokenMapping;\r\n    mapping(uint256 => TokenInfo) tokenInfos;\r\n    \r\n    modifier onlyOwner() {\r\n        require(msg.sender == owner, \"only owner can call this\");\r\n        _;\r\n    }\r\n    \r\n    modifier onlyCreator(uint256 tokenId){\r\n        require(msg.sender == tokenInfos[tokenId].creator, \"only creator can call this\");\r\n        _;\r\n    }\r\n    \r\n    modifier onlyMarketPlace(){\r\n        require(msg.sender == marketPlace, \"only market place can call this\");\r\n        _;\r\n    }\r\n\r\n    modifier onlyChainLink(){\r\n        require(msg.sender == chainLinkContract, \"only chainLink API contract can call this\");\r\n        _;\r\n    }\r\n\r\n    constructor(address owner_, address marketPlace_, address _chainLinkContract) ERC1155(\"\") {\r\n        owner = owner_;\r\n        marketPlace = marketPlace_;\r\n        totalTypesOfTokens = 0;\r\n        chainLinkContract = _chainLinkContract;\r\n    }\r\n    \r\n    function addNewToken(uint256 initialSupply, uint256 price, uint privatLinkId) public returns (uint256){\r\n        \r\n        if (creatorTokenMapping[msg.sender] == 0){\r\n            totalTypesOfTokens++;\r\n            uint256 tokenId = totalTypesOfTokens;\r\n            tokenInfos[tokenId].creator = msg.sender;\r\n            tokenInfos[tokenId].tokenPrice = 100;\r\n            tokenInfos[tokenId].isContentToken = false;\r\n            creatorTokenMapping[msg.sender] = tokenId;\r\n            _mint(msg.sender, tokenId, 100000000000, \"\");\r\n        }\r\n        \r\n        totalTypesOfTokens++;\r\n        uint256 tokenId = totalTypesOfTokens;\r\n        tokenInfos[tokenId].creator = msg.sender;\r\n        tokenInfos[tokenId].tokenPrice = price;\r\n        tokenInfos[tokenId].isContentToken = true;\r\n\r\n        _mint(msg.sender, tokenId, initialSupply, \"\");\r\n        setApprovalForAll(marketPlace, true);\r\n\r\n        ChainLinkContract(chainLinkContract).requestMintGateAccess(tokenId, privatLinkId);\r\n        \r\n        return tokenId;\r\n\r\n    }\r\n    \r\n    function setGatedURI(uint256 tokenID, string memory uri) external onlyChainLink{\r\n        tokenInfos[tokenID].gatedURL = uri;\r\n    }\r\n    \r\n    function getGatedURI(uint256 tokenID) public view returns(string memory){\r\n        return tokenInfos[tokenID].gatedURL;\r\n    }\r\n    \r\n    function addMoreSupply(uint256 tokenID, uint256 additionalSupply) public onlyCreator(tokenID){\r\n        _mint(msg.sender, tokenID, additionalSupply, \"\");\r\n    }\r\n    \r\n    function getTokenPriceAndCreator(uint256 tokenID) external view returns(uint256, address){\r\n        require (tokenInfos[tokenID].tokenPrice > 0, \"Token does not exist\");\r\n        return (tokenInfos[tokenID].tokenPrice, tokenInfos[tokenID].creator);\r\n    }\r\n    \r\n    function setApprovalForMarketPlace() public{\r\n        setApprovalForAll(marketPlace, true);\r\n    }\r\n}\r\n\r\n\r\ncontract MarketPlace {\r\n    address public contentToken;\r\n    address public owner;\r\n    \r\n    mapping(uint256 => mapping(address => uint256)) sellPrice;\r\n    mapping(uint256 => address[]) sellers;\r\n    \r\n    modifier onlyOwner() {\r\n        require(msg.sender == owner, \"only owner can call this\");\r\n        _;\r\n    }\r\n    \r\n    constructor(address owner_) {\r\n        owner = owner_;\r\n    }\r\n    \r\n    function setContentTokenAddress(address contentToken_) public onlyOwner{\r\n        contentToken = contentToken_;\r\n    }\r\n    \r\n    function buyTokenFromCreator(uint256 tokenID) external payable{\r\n        ContentToken c = ContentToken(contentToken);\r\n        (uint256 tokenPrice, address creator) = c.getTokenPriceAndCreator(tokenID);\r\n        \r\n        require(msg.value >= tokenPrice, \"Value less than token price\");\r\n        (bool sent, bytes memory data) = creator.call{value: msg.value}(\"\");\r\n        require(sent, \"Failed to send Ether\");\r\n        c.safeTransferFrom(creator, msg.sender, tokenID, 1, \"\");\r\n    }\r\n    \r\n    function sellToken(uint256 tokenID, uint256 price) public {\r\n        ContentToken c = ContentToken(contentToken);\r\n        \r\n        require(c.isApprovedForAll(msg.sender, address(this)), \"Market place needs to be approved by the seller\");\r\n        \r\n        uint256 balance = c.balanceOf(msg.sender, tokenID);\r\n        require(balance > 0, \"Sender does not have enough to sell tokens\");\r\n        \r\n        sellers[tokenID].push(msg.sender);\r\n        sellPrice[tokenID][msg.sender] = price;\r\n    }\r\n    \r\n    function getLowestPriceAndSeller(uint256 tokenID) public view returns(uint256, address){\r\n        require(sellers[tokenID].length > 0, \"No seller for this token\");\r\n        \r\n        uint256 totalSellers = sellers[tokenID].length;\r\n        uint256 ltp = 115792089237316195423570985008687907853269984665640564039457584007913129639935;\r\n        address ltpAddr = address(0);\r\n        for (uint8 i = 0; i < totalSellers; i++){\r\n            if (ltp > sellPrice[tokenID][sellers[tokenID][i]]){\r\n                if (sellPrice[tokenID][sellers[tokenID][i]] != 0){\r\n                    ltp = sellPrice[tokenID][sellers[tokenID][i]];\r\n                    ltpAddr = sellers[tokenID][i];\r\n                }\r\n            }\r\n        }\r\n        \r\n        return (ltp, ltpAddr);\r\n    }\r\n    \r\n    function buyTokenFromMarket(uint256 tokenID, address from) public payable{\r\n        ContentToken c = ContentToken(contentToken);\r\n        require (sellPrice[tokenID][from] > 0, \"No sell price set\");\r\n        require(msg.value >= sellPrice[tokenID][from], \"Value less than token price\");\r\n        \r\n        uint256 balance = c.balanceOf(from, tokenID);\r\n        require(balance > 0, \"Seller does not have enough tokens\");\r\n        \r\n        (bool sent, bytes memory data) = from.call{value: msg.value}(\"\");\r\n        require(sent, \"Failed to send Ether\");\r\n        c.safeTransferFrom(from, msg.sender, tokenID, 1, \"\");\r\n        \r\n        sellPrice[tokenID][from] = 0;\r\n    }\r\n}\r\n",
  "sourcePath": "/mnt/c/Users/ankit/Documents/CHAINLINK/chain-link-hackathon/dapp/contracts/token.sol",
  "compiler": {
    "name": "solc",
    "version": "0.8.10+commit.fc410830.Emscripten.clang"
  },
  "schemaVersion": "3.4.3",
  "updatedAt": "2021-11-25T15:29:29.994Z",
  "devdoc": {
    "kind": "dev",
    "methods": {
      "balanceOf(address,uint256)": {
        "details": "See {IERC1155-balanceOf}. Requirements: - `account` cannot be the zero address."
      },
      "balanceOfBatch(address[],uint256[])": {
        "details": "See {IERC1155-balanceOfBatch}. Requirements: - `accounts` and `ids` must have the same length."
      },
      "isApprovedForAll(address,address)": {
        "details": "See {IERC1155-isApprovedForAll}."
      },
      "safeBatchTransferFrom(address,address,uint256[],uint256[],bytes)": {
        "details": "See {IERC1155-safeBatchTransferFrom}."
      },
      "safeTransferFrom(address,address,uint256,uint256,bytes)": {
        "details": "See {IERC1155-safeTransferFrom}."
      },
      "setApprovalForAll(address,bool)": {
        "details": "See {IERC1155-setApprovalForAll}."
      },
      "supportsInterface(bytes4)": {
        "details": "See {IERC165-supportsInterface}."
      },
      "uri(uint256)": {
        "details": "See {IERC1155MetadataURI-uri}. This implementation returns the same URI for *all* token types. It relies on the token type ID substitution mechanism https://eips.ethereum.org/EIPS/eip-1155#metadata[defined in the EIP]. Clients calling this function must replace the `\\{id\\}` substring with the actual token type ID."
      }
    },
    "version": 1
  },
  "userdoc": {
    "kind": "user",
    "methods": {},
    "version": 1
  }
}