{
  "contractName": "ContentToken",
  "abi": [
    {
      "inputs": [
        {
          "internalType": "address",
          "name": "owner_",
          "type": "address"
        },
        {
          "internalType": "address",
          "name": "marketPlace_",
          "type": "address"
        }
      ],
      "stateMutability": "nonpayable",
      "type": "constructor"
    },
    {
      "anonymous": false,
      "inputs": [
        {
          "indexed": true,
          "internalType": "address",
          "name": "account",
          "type": "address"
        },
        {
          "indexed": true,
          "internalType": "address",
          "name": "operator",
          "type": "address"
        },
        {
          "indexed": false,
          "internalType": "bool",
          "name": "approved",
          "type": "bool"
        }
      ],
      "name": "ApprovalForAll",
      "type": "event"
    },
    {
      "anonymous": false,
      "inputs": [
        {
          "indexed": true,
          "internalType": "address",
          "name": "operator",
          "type": "address"
        },
        {
          "indexed": true,
          "internalType": "address",
          "name": "from",
          "type": "address"
        },
        {
          "indexed": true,
          "internalType": "address",
          "name": "to",
          "type": "address"
        },
        {
          "indexed": false,
          "internalType": "uint256[]",
          "name": "ids",
          "type": "uint256[]"
        },
        {
          "indexed": false,
          "internalType": "uint256[]",
          "name": "values",
          "type": "uint256[]"
        }
      ],
      "name": "TransferBatch",
      "type": "event"
    },
    {
      "anonymous": false,
      "inputs": [
        {
          "indexed": true,
          "internalType": "address",
          "name": "operator",
          "type": "address"
        },
        {
          "indexed": true,
          "internalType": "address",
          "name": "from",
          "type": "address"
        },
        {
          "indexed": true,
          "internalType": "address",
          "name": "to",
          "type": "address"
        },
        {
          "indexed": false,
          "internalType": "uint256",
          "name": "id",
          "type": "uint256"
        },
        {
          "indexed": false,
          "internalType": "uint256",
          "name": "value",
          "type": "uint256"
        }
      ],
      "name": "TransferSingle",
      "type": "event"
    },
    {
      "anonymous": false,
      "inputs": [
        {
          "indexed": false,
          "internalType": "string",
          "name": "value",
          "type": "string"
        },
        {
          "indexed": true,
          "internalType": "uint256",
          "name": "id",
          "type": "uint256"
        }
      ],
      "name": "URI",
      "type": "event"
    },
    {
      "inputs": [
        {
          "internalType": "address",
          "name": "account",
          "type": "address"
        },
        {
          "internalType": "uint256",
          "name": "id",
          "type": "uint256"
        }
      ],
      "name": "balanceOf",
      "outputs": [
        {
          "internalType": "uint256",
          "name": "",
          "type": "uint256"
        }
      ],
      "stateMutability": "view",
      "type": "function"
    },
    {
      "inputs": [
        {
          "internalType": "address[]",
          "name": "accounts",
          "type": "address[]"
        },
        {
          "internalType": "uint256[]",
          "name": "ids",
          "type": "uint256[]"
        }
      ],
      "name": "balanceOfBatch",
      "outputs": [
        {
          "internalType": "uint256[]",
          "name": "",
          "type": "uint256[]"
        }
      ],
      "stateMutability": "view",
      "type": "function"
    },
    {
      "inputs": [
        {
          "internalType": "address",
          "name": "account",
          "type": "address"
        },
        {
          "internalType": "address",
          "name": "operator",
          "type": "address"
        }
      ],
      "name": "isApprovedForAll",
      "outputs": [
        {
          "internalType": "bool",
          "name": "",
          "type": "bool"
        }
      ],
      "stateMutability": "view",
      "type": "function"
    },
    {
      "inputs": [],
      "name": "marketPlace",
      "outputs": [
        {
          "internalType": "address",
          "name": "",
          "type": "address"
        }
      ],
      "stateMutability": "view",
      "type": "function"
    },
    {
      "inputs": [],
      "name": "owner",
      "outputs": [
        {
          "internalType": "address",
          "name": "",
          "type": "address"
        }
      ],
      "stateMutability": "view",
      "type": "function"
    },
    {
      "inputs": [
        {
          "internalType": "address",
          "name": "from",
          "type": "address"
        },
        {
          "internalType": "address",
          "name": "to",
          "type": "address"
        },
        {
          "internalType": "uint256[]",
          "name": "ids",
          "type": "uint256[]"
        },
        {
          "internalType": "uint256[]",
          "name": "amounts",
          "type": "uint256[]"
        },
        {
          "internalType": "bytes",
          "name": "data",
          "type": "bytes"
        }
      ],
      "name": "safeBatchTransferFrom",
      "outputs": [],
      "stateMutability": "nonpayable",
      "type": "function"
    },
    {
      "inputs": [
        {
          "internalType": "address",
          "name": "from",
          "type": "address"
        },
        {
          "internalType": "address",
          "name": "to",
          "type": "address"
        },
        {
          "internalType": "uint256",
          "name": "id",
          "type": "uint256"
        },
        {
          "internalType": "uint256",
          "name": "amount",
          "type": "uint256"
        },
        {
          "internalType": "bytes",
          "name": "data",
          "type": "bytes"
        }
      ],
      "name": "safeTransferFrom",
      "outputs": [],
      "stateMutability": "nonpayable",
      "type": "function"
    },
    {
      "inputs": [
        {
          "internalType": "address",
          "name": "operator",
          "type": "address"
        },
        {
          "internalType": "bool",
          "name": "approved",
          "type": "bool"
        }
      ],
      "name": "setApprovalForAll",
      "outputs": [],
      "stateMutability": "nonpayable",
      "type": "function"
    },
    {
      "inputs": [
        {
          "internalType": "bytes4",
          "name": "interfaceId",
          "type": "bytes4"
        }
      ],
      "name": "supportsInterface",
      "outputs": [
        {
          "internalType": "bool",
          "name": "",
          "type": "bool"
        }
      ],
      "stateMutability": "view",
      "type": "function"
    },
    {
      "inputs": [],
      "name": "totalTypesOfTokens",
      "outputs": [
        {
          "internalType": "uint256",
          "name": "",
          "type": "uint256"
        }
      ],
      "stateMutability": "view",
      "type": "function"
    },
    {
      "inputs": [
        {
          "internalType": "uint256",
          "name": "",
          "type": "uint256"
        }
      ],
      "name": "uri",
      "outputs": [
        {
          "internalType": "string",
          "name": "",
          "type": "string"
        }
      ],
      "stateMutability": "view",
      "type": "function"
    },
    {
      "inputs": [
        {
          "internalType": "uint256",
          "name": "initialSupply",
          "type": "uint256"
        },
        {
          "internalType": "uint256",
          "name": "price",
          "type": "uint256"
        }
      ],
      "name": "addNewToken",
      "outputs": [],
      "stateMutability": "nonpayable",
      "type": "function"
    },
    {
      "inputs": [
        {
          "internalType": "uint256",
          "name": "tokenID",
          "type": "uint256"
        },
        {
          "internalType": "string",
          "name": "uri",
          "type": "string"
        }
      ],
      "name": "setGatedURI",
      "outputs": [],
      "stateMutability": "nonpayable",
      "type": "function"
    },
    {
      "inputs": [
        {
          "internalType": "uint256",
          "name": "tokenID",
          "type": "uint256"
        }
      ],
      "name": "getGatedURI",
      "outputs": [
        {
          "internalType": "string",
          "name": "",
          "type": "string"
        }
      ],
      "stateMutability": "view",
      "type": "function"
    },
    {
      "inputs": [
        {
          "internalType": "uint256",
          "name": "tokenID",
          "type": "uint256"
        },
        {
          "internalType": "uint256",
          "name": "additionalSupply",
          "type": "uint256"
        }
      ],
      "name": "addMoreSupply",
      "outputs": [],
      "stateMutability": "nonpayable",
      "type": "function"
    },
    {
      "inputs": [
        {
          "internalType": "uint256",
          "name": "tokenID",
          "type": "uint256"
        }
      ],
      "name": "getTokenPriceAndCreator",
      "outputs": [
        {
          "internalType": "uint256",
          "name": "",
          "type": "uint256"
        },
        {
          "internalType": "address",
          "name": "",
          "type": "address"
        }
      ],
      "stateMutability": "view",
      "type": "function"
    }
  ],
  "bytecode": "0x60806040523480156200001157600080fd5b506040516200336938038062003369833981810160405281019062000037919062000221565b604051806020016040528060008152506200005881620000eb60201b60201c565b5081600360006101000a81548173ffffffffffffffffffffffffffffffffffffffff021916908373ffffffffffffffffffffffffffffffffffffffff16021790555080600460006101000a81548173ffffffffffffffffffffffffffffffffffffffff021916908373ffffffffffffffffffffffffffffffffffffffff16021790555060006005819055505050620002cd565b80600290805190602001906200010392919062000107565b5050565b828054620001159062000297565b90600052602060002090601f01602090048101928262000139576000855562000185565b82601f106200015457805160ff191683800117855562000185565b8280016001018555821562000185579182015b828111156200018457825182559160200191906001019062000167565b5b50905062000194919062000198565b5090565b5b80821115620001b357600081600090555060010162000199565b5090565b600080fd5b600073ffffffffffffffffffffffffffffffffffffffff82169050919050565b6000620001e982620001bc565b9050919050565b620001fb81620001dc565b81146200020757600080fd5b50565b6000815190506200021b81620001f0565b92915050565b600080604083850312156200023b576200023a620001b7565b5b60006200024b858286016200020a565b92505060206200025e858286016200020a565b9150509250929050565b7f4e487b7100000000000000000000000000000000000000000000000000000000600052602260045260246000fd5b60006002820490506001821680620002b057607f821691505b60208210811415620002c757620002c662000268565b5b50919050565b61308c80620002dd6000396000f3fe608060405234801561001057600080fd5b50600436106100ff5760003560e01c80638da5cb5b11610097578063e06b2ed711610066578063e06b2ed7146102d1578063e985e9c5146102ef578063f242432a1461031f578063f75d6eb31461033b576100ff565b80638da5cb5b14610236578063a22cb46514610254578063db7bb41214610270578063ddff9def146102a1576100ff565b80632eb2c2d6116100d35780632eb2c2d6146101b25780634e1273f4146101ce5780635e69e8a0146101fe57806364298d2d1461021a576100ff565b8062fdd58e1461010457806301ffc9a7146101345780630e89341c146101645780632e25d2a614610194575b600080fd5b61011e60048036038101906101199190611b29565b610357565b60405161012b9190611b78565b60405180910390f35b61014e60048036038101906101499190611beb565b610420565b60405161015b9190611c33565b60405180910390f35b61017e60048036038101906101799190611c4e565b610502565b60405161018b9190611d14565b60405180910390f35b61019c610596565b6040516101a99190611d45565b60405180910390f35b6101cc60048036038101906101c79190611f5d565b6105bc565b005b6101e860048036038101906101e391906120ef565b61065d565b6040516101f59190612225565b60405180910390f35b610218600480360381019061021391906122e8565b610776565b005b610234600480360381019061022f9190612344565b610832565b005b61023e610908565b60405161024b9190611d45565b60405180910390f35b61026e600480360381019061026991906123b0565b61092e565b005b61028a60048036038101906102859190611c4e565b610aaf565b6040516102989291906123f0565b60405180910390f35b6102bb60048036038101906102b69190611c4e565b610b59565b6040516102c89190611d14565b60405180910390f35b6102d9610bfe565b6040516102e69190611b78565b60405180910390f35b61030960048036038101906103049190612419565b610c04565b6040516103169190611c33565b60405180910390f35b61033960048036038101906103349190612459565b610c98565b005b61035560048036038101906103509190612344565b610d39565b005b60008073ffffffffffffffffffffffffffffffffffffffff168373ffffffffffffffffffffffffffffffffffffffff1614156103c8576040517f08c379a00000000000000000000000000000000000000000000000000000000081526004016103bf90612562565b60405180910390fd5b60008083815260200190815260200160002060008473ffffffffffffffffffffffffffffffffffffffff1673ffffffffffffffffffffffffffffffffffffffff16815260200190815260200160002054905092915050565b60007fd9b67a26000000000000000000000000000000000000000000000000000000007bffffffffffffffffffffffffffffffffffffffffffffffffffffffff1916827bffffffffffffffffffffffffffffffffffffffffffffffffffffffff191614806104eb57507f0e89341c000000000000000000000000000000000000000000000000000000007bffffffffffffffffffffffffffffffffffffffffffffffffffffffff1916827bffffffffffffffffffffffffffffffffffffffffffffffffffffffff1916145b806104fb57506104fa82610dfb565b5b9050919050565b606060028054610511906125b1565b80601f016020809104026020016040519081016040528092919081815260200182805461053d906125b1565b801561058a5780601f1061055f5761010080835404028352916020019161058a565b820191906000526020600020905b81548152906001019060200180831161056d57829003601f168201915b50505050509050919050565b600460009054906101000a900473ffffffffffffffffffffffffffffffffffffffff1681565b6105c4610e65565b73ffffffffffffffffffffffffffffffffffffffff168573ffffffffffffffffffffffffffffffffffffffff16148061060a575061060985610604610e65565b610c04565b5b610649576040517f08c379a000000000000000000000000000000000000000000000000000000000815260040161064090612655565b60405180910390fd5b6106568585858585610e6d565b5050505050565b606081518351146106a3576040517f08c379a000000000000000000000000000000000000000000000000000000000815260040161069a906126e7565b60405180910390fd5b6000835167ffffffffffffffff8111156106c0576106bf611d65565b5b6040519080825280602002602001820160405280156106ee5781602001602082028036833780820191505090505b50905060005b845181101561076b5761073b85828151811061071357610712612707565b5b602002602001015185838151811061072e5761072d612707565b5b6020026020010151610357565b82828151811061074e5761074d612707565b5b6020026020010181815250508061076490612765565b90506106f4565b508091505092915050565b600360009054906101000a900473ffffffffffffffffffffffffffffffffffffffff1673ffffffffffffffffffffffffffffffffffffffff163373ffffffffffffffffffffffffffffffffffffffff1614610806576040517f08c379a00000000000000000000000000000000000000000000000000000000081526004016107fd906127fa565b60405180910390fd5b8060076000848152602001908152602001600020908051906020019061082d9291906119de565b505050565b6005600081548092919061084590612765565b919050555060006005549050336006600083815260200190815260200160002060006101000a81548173ffffffffffffffffffffffffffffffffffffffff021916908373ffffffffffffffffffffffffffffffffffffffff1602179055508160086000838152602001908152602001600020819055506108d633828560405180602001604052806000815250611181565b610903600460009054906101000a900473ffffffffffffffffffffffffffffffffffffffff16600161092e565b505050565b600360009054906101000a900473ffffffffffffffffffffffffffffffffffffffff1681565b8173ffffffffffffffffffffffffffffffffffffffff1661094d610e65565b73ffffffffffffffffffffffffffffffffffffffff1614156109a4576040517f08c379a000000000000000000000000000000000000000000000000000000000815260040161099b9061288c565b60405180910390fd5b80600160006109b1610e65565b73ffffffffffffffffffffffffffffffffffffffff1673ffffffffffffffffffffffffffffffffffffffff16815260200190815260200160002060008473ffffffffffffffffffffffffffffffffffffffff1673ffffffffffffffffffffffffffffffffffffffff16815260200190815260200160002060006101000a81548160ff0219169083151502179055508173ffffffffffffffffffffffffffffffffffffffff16610a5e610e65565b73ffffffffffffffffffffffffffffffffffffffff167f17307eab39ab6107e8899845ad3d59bd9653f200f220920489ca2b5937696c3183604051610aa39190611c33565b60405180910390a35050565b6000806000600860008581526020019081526020016000205411610b08576040517f08c379a0000000000000000000000000000000000000000000000000000000008152600401610aff906128f8565b60405180910390fd5b60086000848152602001908152602001600020546006600085815260200190815260200160002060009054906101000a900473ffffffffffffffffffffffffffffffffffffffff1691509150915091565b6060600760008381526020019081526020016000208054610b79906125b1565b80601f0160208091040260200160405190810160405280929190818152602001828054610ba5906125b1565b8015610bf25780601f10610bc757610100808354040283529160200191610bf2565b820191906000526020600020905b815481529060010190602001808311610bd557829003601f168201915b50505050509050919050565b60055481565b6000600160008473ffffffffffffffffffffffffffffffffffffffff1673ffffffffffffffffffffffffffffffffffffffff16815260200190815260200160002060008373ffffffffffffffffffffffffffffffffffffffff1673ffffffffffffffffffffffffffffffffffffffff16815260200190815260200160002060009054906101000a900460ff16905092915050565b610ca0610e65565b73ffffffffffffffffffffffffffffffffffffffff168573ffffffffffffffffffffffffffffffffffffffff161480610ce65750610ce585610ce0610e65565b610c04565b5b610d25576040517f08c379a0000000000000000000000000000000000000000000000000000000008152600401610d1c9061298a565b60405180910390fd5b610d328585858585611317565b5050505050565b816006600082815260200190815260200160002060009054906101000a900473ffffffffffffffffffffffffffffffffffffffff1673ffffffffffffffffffffffffffffffffffffffff163373ffffffffffffffffffffffffffffffffffffffff1614610ddb576040517f08c379a0000000000000000000000000000000000000000000000000000000008152600401610dd2906129f6565b60405180910390fd5b610df633848460405180602001604052806000815250611181565b505050565b60007f01ffc9a7000000000000000000000000000000000000000000000000000000007bffffffffffffffffffffffffffffffffffffffffffffffffffffffff1916827bffffffffffffffffffffffffffffffffffffffffffffffffffffffff1916149050919050565b600033905090565b8151835114610eb1576040517f08c379a0000000000000000000000000000000000000000000000000000000008152600401610ea890612a88565b60405180910390fd5b600073ffffffffffffffffffffffffffffffffffffffff168473ffffffffffffffffffffffffffffffffffffffff161415610f21576040517f08c379a0000000000000000000000000000000000000000000000000000000008152600401610f1890612b1a565b60405180910390fd5b6000610f2b610e65565b9050610f3b818787878787611599565b60005b84518110156110ec576000858281518110610f5c57610f5b612707565b5b602002602001015190506000858381518110610f7b57610f7a612707565b5b60200260200101519050600080600084815260200190815260200160002060008b73ffffffffffffffffffffffffffffffffffffffff1673ffffffffffffffffffffffffffffffffffffffff1681526020019081526020016000205490508181101561101c576040517f08c379a000000000000000000000000000000000000000000000000000000000815260040161101390612bac565b60405180910390fd5b81810360008085815260200190815260200160002060008c73ffffffffffffffffffffffffffffffffffffffff1673ffffffffffffffffffffffffffffffffffffffff168152602001908152602001600020819055508160008085815260200190815260200160002060008b73ffffffffffffffffffffffffffffffffffffffff1673ffffffffffffffffffffffffffffffffffffffff16815260200190815260200160002060008282546110d19190612bcc565b92505081905550505050806110e590612765565b9050610f3e565b508473ffffffffffffffffffffffffffffffffffffffff168673ffffffffffffffffffffffffffffffffffffffff168273ffffffffffffffffffffffffffffffffffffffff167f4a39dc06d4c0dbc64b70af90fd698a233a518aa5d07e595d983b8c0526c8f7fb8787604051611163929190612c22565b60405180910390a46111798187878787876115a1565b505050505050565b600073ffffffffffffffffffffffffffffffffffffffff168473ffffffffffffffffffffffffffffffffffffffff1614156111f1576040517f08c379a00000000000000000000000000000000000000000000000000000000081526004016111e890612ccb565b60405180910390fd5b60006111fb610e65565b905061121c8160008761120d88611779565b61121688611779565b87611599565b8260008086815260200190815260200160002060008773ffffffffffffffffffffffffffffffffffffffff1673ffffffffffffffffffffffffffffffffffffffff168152602001908152602001600020600082825461127b9190612bcc565b925050819055508473ffffffffffffffffffffffffffffffffffffffff16600073ffffffffffffffffffffffffffffffffffffffff168273ffffffffffffffffffffffffffffffffffffffff167fc3d58168c5ae7397731d063d5bbf3d657854427343f4c083240f7aacaa2d0f6287876040516112f9929190612ceb565b60405180910390a4611310816000878787876117f3565b5050505050565b600073ffffffffffffffffffffffffffffffffffffffff168473ffffffffffffffffffffffffffffffffffffffff161415611387576040517f08c379a000000000000000000000000000000000000000000000000000000000815260040161137e90612b1a565b60405180910390fd5b6000611391610e65565b90506113b18187876113a288611779565b6113ab88611779565b87611599565b600080600086815260200190815260200160002060008873ffffffffffffffffffffffffffffffffffffffff1673ffffffffffffffffffffffffffffffffffffffff16815260200190815260200160002054905083811015611448576040517f08c379a000000000000000000000000000000000000000000000000000000000815260040161143f90612bac565b60405180910390fd5b83810360008087815260200190815260200160002060008973ffffffffffffffffffffffffffffffffffffffff1673ffffffffffffffffffffffffffffffffffffffff168152602001908152602001600020819055508360008087815260200190815260200160002060008873ffffffffffffffffffffffffffffffffffffffff1673ffffffffffffffffffffffffffffffffffffffff16815260200190815260200160002060008282546114fd9190612bcc565b925050819055508573ffffffffffffffffffffffffffffffffffffffff168773ffffffffffffffffffffffffffffffffffffffff168373ffffffffffffffffffffffffffffffffffffffff167fc3d58168c5ae7397731d063d5bbf3d657854427343f4c083240f7aacaa2d0f62888860405161157a929190612ceb565b60405180910390a46115908288888888886117f3565b50505050505050565b505050505050565b6115c08473ffffffffffffffffffffffffffffffffffffffff166119cb565b15611771578373ffffffffffffffffffffffffffffffffffffffff1663bc197c8187878686866040518663ffffffff1660e01b8152600401611606959493929190612d69565b6020604051808303816000875af192505050801561164257506040513d601f19601f8201168201806040525081019061163f9190612de6565b60015b6116e85761164e612e20565b806308c379a014156116ab5750611663612e42565b8061166e57506116ad565b806040517f08c379a00000000000000000000000000000000000000000000000000000000081526004016116a29190611d14565b60405180910390fd5b505b6040517f08c379a00000000000000000000000000000000000000000000000000000000081526004016116df90612f4a565b60405180910390fd5b63bc197c8160e01b7bffffffffffffffffffffffffffffffffffffffffffffffffffffffff1916817bffffffffffffffffffffffffffffffffffffffffffffffffffffffff19161461176f576040517f08c379a000000000000000000000000000000000000000000000000000000000815260040161176690612fdc565b60405180910390fd5b505b505050505050565b60606000600167ffffffffffffffff81111561179857611797611d65565b5b6040519080825280602002602001820160405280156117c65781602001602082028036833780820191505090505b50905082816000815181106117de576117dd612707565b5b60200260200101818152505080915050919050565b6118128473ffffffffffffffffffffffffffffffffffffffff166119cb565b156119c3578373ffffffffffffffffffffffffffffffffffffffff1663f23a6e6187878686866040518663ffffffff1660e01b8152600401611858959493929190612ffc565b6020604051808303816000875af192505050801561189457506040513d601f19601f820116820180604052508101906118919190612de6565b60015b61193a576118a0612e20565b806308c379a014156118fd57506118b5612e42565b806118c057506118ff565b806040517f08c379a00000000000000000000000000000000000000000000000000000000081526004016118f49190611d14565b60405180910390fd5b505b6040517f08c379a000000000000000000000000000000000000000000000000000000000815260040161193190612f4a565b60405180910390fd5b63f23a6e6160e01b7bffffffffffffffffffffffffffffffffffffffffffffffffffffffff1916817bffffffffffffffffffffffffffffffffffffffffffffffffffffffff1916146119c1576040517f08c379a00000000000000000000000000000000000000000000000000000000081526004016119b890612fdc565b60405180910390fd5b505b505050505050565b600080823b905060008111915050919050565b8280546119ea906125b1565b90600052602060002090601f016020900481019282611a0c5760008555611a53565b82601f10611a2557805160ff1916838001178555611a53565b82800160010185558215611a53579182015b82811115611a52578251825591602001919060010190611a37565b5b509050611a609190611a64565b5090565b5b80821115611a7d576000816000905550600101611a65565b5090565b6000604051905090565b600080fd5b600080fd5b600073ffffffffffffffffffffffffffffffffffffffff82169050919050565b6000611ac082611a95565b9050919050565b611ad081611ab5565b8114611adb57600080fd5b50565b600081359050611aed81611ac7565b92915050565b6000819050919050565b611b0681611af3565b8114611b1157600080fd5b50565b600081359050611b2381611afd565b92915050565b60008060408385031215611b4057611b3f611a8b565b5b6000611b4e85828601611ade565b9250506020611b5f85828601611b14565b9150509250929050565b611b7281611af3565b82525050565b6000602082019050611b8d6000830184611b69565b92915050565b60007fffffffff0000000000000000000000000000000000000000000000000000000082169050919050565b611bc881611b93565b8114611bd357600080fd5b50565b600081359050611be581611bbf565b92915050565b600060208284031215611c0157611c00611a8b565b5b6000611c0f84828501611bd6565b91505092915050565b60008115159050919050565b611c2d81611c18565b82525050565b6000602082019050611c486000830184611c24565b92915050565b600060208284031215611c6457611c63611a8b565b5b6000611c7284828501611b14565b91505092915050565b600081519050919050565b600082825260208201905092915050565b60005b83811015611cb5578082015181840152602081019050611c9a565b83811115611cc4576000848401525b50505050565b6000601f19601f8301169050919050565b6000611ce682611c7b565b611cf08185611c86565b9350611d00818560208601611c97565b611d0981611cca565b840191505092915050565b60006020820190508181036000830152611d2e8184611cdb565b905092915050565b611d3f81611ab5565b82525050565b6000602082019050611d5a6000830184611d36565b92915050565b600080fd5b7f4e487b7100000000000000000000000000000000000000000000000000000000600052604160045260246000fd5b611d9d82611cca565b810181811067ffffffffffffffff82111715611dbc57611dbb611d65565b5b80604052505050565b6000611dcf611a81565b9050611ddb8282611d94565b919050565b600067ffffffffffffffff821115611dfb57611dfa611d65565b5b602082029050602081019050919050565b600080fd5b6000611e24611e1f84611de0565b611dc5565b90508083825260208201905060208402830185811115611e4757611e46611e0c565b5b835b81811015611e705780611e5c8882611b14565b845260208401935050602081019050611e49565b5050509392505050565b600082601f830112611e8f57611e8e611d60565b5b8135611e9f848260208601611e11565b91505092915050565b600080fd5b600067ffffffffffffffff821115611ec857611ec7611d65565b5b611ed182611cca565b9050602081019050919050565b82818337600083830152505050565b6000611f00611efb84611ead565b611dc5565b905082815260208101848484011115611f1c57611f1b611ea8565b5b611f27848285611ede565b509392505050565b600082601f830112611f4457611f43611d60565b5b8135611f54848260208601611eed565b91505092915050565b600080600080600060a08688031215611f7957611f78611a8b565b5b6000611f8788828901611ade565b9550506020611f9888828901611ade565b945050604086013567ffffffffffffffff811115611fb957611fb8611a90565b5b611fc588828901611e7a565b935050606086013567ffffffffffffffff811115611fe657611fe5611a90565b5b611ff288828901611e7a565b925050608086013567ffffffffffffffff81111561201357612012611a90565b5b61201f88828901611f2f565b9150509295509295909350565b600067ffffffffffffffff82111561204757612046611d65565b5b602082029050602081019050919050565b600061206b6120668461202c565b611dc5565b9050808382526020820190506020840283018581111561208e5761208d611e0c565b5b835b818110156120b757806120a38882611ade565b845260208401935050602081019050612090565b5050509392505050565b600082601f8301126120d6576120d5611d60565b5b81356120e6848260208601612058565b91505092915050565b6000806040838503121561210657612105611a8b565b5b600083013567ffffffffffffffff81111561212457612123611a90565b5b612130858286016120c1565b925050602083013567ffffffffffffffff81111561215157612150611a90565b5b61215d85828601611e7a565b9150509250929050565b600081519050919050565b600082825260208201905092915050565b6000819050602082019050919050565b61219c81611af3565b82525050565b60006121ae8383612193565b60208301905092915050565b6000602082019050919050565b60006121d282612167565b6121dc8185612172565b93506121e783612183565b8060005b838110156122185781516121ff88826121a2565b975061220a836121ba565b9250506001810190506121eb565b5085935050505092915050565b6000602082019050818103600083015261223f81846121c7565b905092915050565b600067ffffffffffffffff82111561226257612261611d65565b5b61226b82611cca565b9050602081019050919050565b600061228b61228684612247565b611dc5565b9050828152602081018484840111156122a7576122a6611ea8565b5b6122b2848285611ede565b509392505050565b600082601f8301126122cf576122ce611d60565b5b81356122df848260208601612278565b91505092915050565b600080604083850312156122ff576122fe611a8b565b5b600061230d85828601611b14565b925050602083013567ffffffffffffffff81111561232e5761232d611a90565b5b61233a858286016122ba565b9150509250929050565b6000806040838503121561235b5761235a611a8b565b5b600061236985828601611b14565b925050602061237a85828601611b14565b9150509250929050565b61238d81611c18565b811461239857600080fd5b50565b6000813590506123aa81612384565b92915050565b600080604083850312156123c7576123c6611a8b565b5b60006123d585828601611ade565b92505060206123e68582860161239b565b9150509250929050565b60006040820190506124056000830185611b69565b6124126020830184611d36565b9392505050565b600080604083850312156124305761242f611a8b565b5b600061243e85828601611ade565b925050602061244f85828601611ade565b9150509250929050565b600080600080600060a0868803121561247557612474611a8b565b5b600061248388828901611ade565b955050602061249488828901611ade565b94505060406124a588828901611b14565b93505060606124b688828901611b14565b925050608086013567ffffffffffffffff8111156124d7576124d6611a90565b5b6124e388828901611f2f565b9150509295509295909350565b7f455243313135353a2062616c616e636520717565727920666f7220746865207a60008201527f65726f2061646472657373000000000000000000000000000000000000000000602082015250565b600061254c602b83611c86565b9150612557826124f0565b604082019050919050565b6000602082019050818103600083015261257b8161253f565b9050919050565b7f4e487b7100000000000000000000000000000000000000000000000000000000600052602260045260246000fd5b600060028204905060018216806125c957607f821691505b602082108114156125dd576125dc612582565b5b50919050565b7f455243313135353a207472616e736665722063616c6c6572206973206e6f742060008201527f6f776e6572206e6f7220617070726f7665640000000000000000000000000000602082015250565b600061263f603283611c86565b915061264a826125e3565b604082019050919050565b6000602082019050818103600083015261266e81612632565b9050919050565b7f455243313135353a206163636f756e747320616e6420696473206c656e67746860008201527f206d69736d617463680000000000000000000000000000000000000000000000602082015250565b60006126d1602983611c86565b91506126dc82612675565b604082019050919050565b60006020820190508181036000830152612700816126c4565b9050919050565b7f4e487b7100000000000000000000000000000000000000000000000000000000600052603260045260246000fd5b7f4e487b7100000000000000000000000000000000000000000000000000000000600052601160045260246000fd5b600061277082611af3565b91507fffffffffffffffffffffffffffffffffffffffffffffffffffffffffffffffff8214156127a3576127a2612736565b5b600182019050919050565b7f6f6e6c79206f776e65722063616e2063616c6c20746869730000000000000000600082015250565b60006127e4601883611c86565b91506127ef826127ae565b602082019050919050565b60006020820190508181036000830152612813816127d7565b9050919050565b7f455243313135353a2073657474696e6720617070726f76616c2073746174757360008201527f20666f722073656c660000000000000000000000000000000000000000000000602082015250565b6000612876602983611c86565b91506128818261281a565b604082019050919050565b600060208201905081810360008301526128a581612869565b9050919050565b7f546f6b656e20646f6573206e6f74206578697374000000000000000000000000600082015250565b60006128e2601483611c86565b91506128ed826128ac565b602082019050919050565b60006020820190508181036000830152612911816128d5565b9050919050565b7f455243313135353a2063616c6c6572206973206e6f74206f776e6572206e6f7260008201527f20617070726f7665640000000000000000000000000000000000000000000000602082015250565b6000612974602983611c86565b915061297f82612918565b604082019050919050565b600060208201905081810360008301526129a381612967565b9050919050565b7f6f6e6c792063726561746f722063616e2063616c6c2074686973000000000000600082015250565b60006129e0601a83611c86565b91506129eb826129aa565b602082019050919050565b60006020820190508181036000830152612a0f816129d3565b9050919050565b7f455243313135353a2069647320616e6420616d6f756e7473206c656e6774682060008201527f6d69736d61746368000000000000000000000000000000000000000000000000602082015250565b6000612a72602883611c86565b9150612a7d82612a16565b604082019050919050565b60006020820190508181036000830152612aa181612a65565b9050919050565b7f455243313135353a207472616e7366657220746f20746865207a65726f20616460008201527f6472657373000000000000000000000000000000000000000000000000000000602082015250565b6000612b04602583611c86565b9150612b0f82612aa8565b604082019050919050565b60006020820190508181036000830152612b3381612af7565b9050919050565b7f455243313135353a20696e73756666696369656e742062616c616e636520666f60008201527f72207472616e7366657200000000000000000000000000000000000000000000602082015250565b6000612b96602a83611c86565b9150612ba182612b3a565b604082019050919050565b60006020820190508181036000830152612bc581612b89565b9050919050565b6000612bd782611af3565b9150612be283611af3565b9250827fffffffffffffffffffffffffffffffffffffffffffffffffffffffffffffffff03821115612c1757612c16612736565b5b828201905092915050565b60006040820190508181036000830152612c3c81856121c7565b90508181036020830152612c5081846121c7565b90509392505050565b7f455243313135353a206d696e7420746f20746865207a65726f2061646472657360008201527f7300000000000000000000000000000000000000000000000000000000000000602082015250565b6000612cb5602183611c86565b9150612cc082612c59565b604082019050919050565b60006020820190508181036000830152612ce481612ca8565b9050919050565b6000604082019050612d006000830185611b69565b612d0d6020830184611b69565b9392505050565b600081519050919050565b600082825260208201905092915050565b6000612d3b82612d14565b612d458185612d1f565b9350612d55818560208601611c97565b612d5e81611cca565b840191505092915050565b600060a082019050612d7e6000830188611d36565b612d8b6020830187611d36565b8181036040830152612d9d81866121c7565b90508181036060830152612db181856121c7565b90508181036080830152612dc58184612d30565b90509695505050505050565b600081519050612de081611bbf565b92915050565b600060208284031215612dfc57612dfb611a8b565b5b6000612e0a84828501612dd1565b91505092915050565b60008160e01c9050919050565b600060033d1115612e3f5760046000803e612e3c600051612e13565b90505b90565b600060443d1015612e5257612ed5565b612e5a611a81565b60043d036004823e80513d602482011167ffffffffffffffff82111715612e82575050612ed5565b808201805167ffffffffffffffff811115612ea05750505050612ed5565b80602083010160043d038501811115612ebd575050505050612ed5565b612ecc82602001850186611d94565b82955050505050505b90565b7f455243313135353a207472616e7366657220746f206e6f6e204552433131353560008201527f526563656976657220696d706c656d656e746572000000000000000000000000602082015250565b6000612f34603483611c86565b9150612f3f82612ed8565b604082019050919050565b60006020820190508181036000830152612f6381612f27565b9050919050565b7f455243313135353a204552433131353552656365697665722072656a6563746560008201527f6420746f6b656e73000000000000000000000000000000000000000000000000602082015250565b6000612fc6602883611c86565b9150612fd182612f6a565b604082019050919050565b60006020820190508181036000830152612ff581612fb9565b9050919050565b600060a0820190506130116000830188611d36565b61301e6020830187611d36565b61302b6040830186611b69565b6130386060830185611b69565b818103608083015261304a8184612d30565b9050969550505050505056fea264697066735822122074c4a1729233b687ca84d6edddf2db831d8540745db480ea6a70fb8ba43fb1ca64736f6c634300080a0033",
  "immutableReferences": {},
  "source": "// contracts/GameItems.sol\r\n// SPDX-License-Identifier: MIT\r\npragma solidity ^0.8.10;\r\n\r\nimport \"@openzeppelin/contracts/token/ERC1155/ERC1155.sol\";\r\n\r\ncontract ContentToken is ERC1155 {\r\n    address public owner;\r\n    address public marketPlace;\r\n    uint256 public totalTypesOfTokens;\r\n\r\n    mapping(uint256 => address) tokenCreator;\r\n    mapping(uint256 => string) gatedURLs;\r\n    mapping(uint256 => uint256) tokenPrice;\r\n\r\n    modifier onlyOwner() {\r\n        require(msg.sender == owner, \"only owner can call this\");\r\n        _;\r\n    }\r\n\r\n    modifier onlyCreator(uint256 tokenId){\r\n        require(msg.sender == tokenCreator[tokenId], \"only creator can call this\");\r\n        _;\r\n    }\r\n\r\n    constructor(address owner_, address marketPlace_) ERC1155(\"\") {\r\n        owner = owner_;\r\n        marketPlace = marketPlace_;\r\n        totalTypesOfTokens = 0;\r\n    }\r\n\r\n    function addNewToken(uint256 initialSupply, uint256 price) public {\r\n        totalTypesOfTokens++;\r\n        uint256 tokenId = totalTypesOfTokens;\r\n        tokenCreator[tokenId] = msg.sender;\r\n        tokenPrice[tokenId] = price;\r\n\r\n        _mint(msg.sender, tokenId, initialSupply, \"\");\r\n        setApprovalForAll(marketPlace, true);\r\n\r\n        // ChainLink Call\r\n        // -- mintgate connection (Custom API call){tokenID, private-link-id}\r\n    }\r\n\r\n    function setGatedURI(uint256 tokenID, string memory uri) public onlyOwner{\r\n        gatedURLs[tokenID] = uri;\r\n    }\r\n\r\n    function getGatedURI(uint256 tokenID) public view returns(string memory){\r\n        return gatedURLs[tokenID];\r\n    }\r\n\r\n    function addMoreSupply(uint256 tokenID, uint256 additionalSupply) public onlyCreator(tokenID){\r\n        _mint(msg.sender, tokenID, additionalSupply, \"\");\r\n    }\r\n\r\n    function getTokenPriceAndCreator(uint256 tokenID) external view returns(uint256, address){\r\n        require (tokenPrice[tokenID] > 0, \"Token does not exist\");\r\n        return (tokenPrice[tokenID], tokenCreator[tokenID]);\r\n    }\r\n}\r\n\r\n\r\ncontract MarketPlace {\r\n    address public contentToken;\r\n    address public owner;\r\n\r\n    modifier onlyOwner() {\r\n        require(msg.sender == owner, \"only owner can call this\");\r\n        _;\r\n    }\r\n\r\n    constructor(address owner_) {\r\n        owner = owner_;\r\n    }\r\n\r\n    function setContentTokenAddress(address contentToken_) public onlyOwner{\r\n        contentToken = contentToken_;\r\n    }\r\n\r\n    function buyToken(uint256 tokenID) external payable{\r\n        ContentToken c = ContentToken(contentToken);\r\n        (uint256 tokenPrice, address creator) = c.getTokenPriceAndCreator(tokenID);\r\n\r\n        require(msg.value >= tokenPrice, \"Value less than token price\");\r\n        (bool sent, bytes memory data) = creator.call{value: msg.value}(\"\");\r\n        require(sent, \"Failed to send Ether\");\r\n        c.safeTransferFrom(creator, msg.sender, tokenID, 1, \"\");\r\n    }\r\n} ",
  "sourcePath": "/mnt/c/Users/ankit/Documents/CHAINLINK/chain-link-hackathon/dapp/contracts/token.sol",
  "compiler": {
    "name": "solc",
    "version": "0.8.10+commit.fc410830.Emscripten.clang"
  },
  "schemaVersion": "3.4.3",
  "updatedAt": "2021-11-21T15:22:55.102Z",
  "devdoc": {
    "kind": "dev",
    "methods": {
      "balanceOf(address,uint256)": {
        "details": "See {IERC1155-balanceOf}. Requirements: - `account` cannot be the zero address."
      },
      "balanceOfBatch(address[],uint256[])": {
        "details": "See {IERC1155-balanceOfBatch}. Requirements: - `accounts` and `ids` must have the same length."
      },
      "isApprovedForAll(address,address)": {
        "details": "See {IERC1155-isApprovedForAll}."
      },
      "safeBatchTransferFrom(address,address,uint256[],uint256[],bytes)": {
        "details": "See {IERC1155-safeBatchTransferFrom}."
      },
      "safeTransferFrom(address,address,uint256,uint256,bytes)": {
        "details": "See {IERC1155-safeTransferFrom}."
      },
      "setApprovalForAll(address,bool)": {
        "details": "See {IERC1155-setApprovalForAll}."
      },
      "supportsInterface(bytes4)": {
        "details": "See {IERC165-supportsInterface}."
      },
      "uri(uint256)": {
        "details": "See {IERC1155MetadataURI-uri}. This implementation returns the same URI for *all* token types. It relies on the token type ID substitution mechanism https://eips.ethereum.org/EIPS/eip-1155#metadata[defined in the EIP]. Clients calling this function must replace the `\\{id\\}` substring with the actual token type ID."
      }
    },
    "version": 1
  },
  "userdoc": {
    "kind": "user",
    "methods": {},
    "version": 1
  }
}