{
  "contractName": "FirstContract",
  "abi": [
    {
      "inputs": [],
      "name": "getValue",
      "outputs": [
        {
          "internalType": "uint256",
          "name": "",
          "type": "uint256"
        }
      ],
      "stateMutability": "view",
      "type": "function"
    },
    {
      "inputs": [
        {
          "internalType": "uint256",
          "name": "_value",
          "type": "uint256"
        }
      ],
      "name": "setValue",
      "outputs": [],
      "stateMutability": "nonpayable",
      "type": "function"
    },
    {
      "inputs": [],
      "name": "getMsgSender",
      "outputs": [
        {
          "internalType": "address",
          "name": "",
          "type": "address"
        }
      ],
      "stateMutability": "view",
      "type": "function"
    }
  ],
  "bytecode": "0x60806040526301145e1560005534801561001857600080fd5b50610240806100286000396000f3fe608060405234801561001057600080fd5b50600436106100415760003560e01c8063209652551461004657806355241077146100645780637a6ce2e114610080575b600080fd5b61004e61009e565b60405161005b9190610135565b60405180910390f35b61007e60048036038101906100799190610181565b6100a7565b005b6100886100f2565b60405161009591906101ef565b60405180910390f35b60008054905090565b33600160006101000a81548173ffffffffffffffffffffffffffffffffffffffff021916908373ffffffffffffffffffffffffffffffffffffffff1602179055508060008190555050565b6000600160009054906101000a900473ffffffffffffffffffffffffffffffffffffffff16905090565b6000819050919050565b61012f8161011c565b82525050565b600060208201905061014a6000830184610126565b92915050565b600080fd5b61015e8161011c565b811461016957600080fd5b50565b60008135905061017b81610155565b92915050565b60006020828403121561019757610196610150565b5b60006101a58482850161016c565b91505092915050565b600073ffffffffffffffffffffffffffffffffffffffff82169050919050565b60006101d9826101ae565b9050919050565b6101e9816101ce565b82525050565b600060208201905061020460008301846101e0565b9291505056fea264697066735822122044c885d2070d0e2c50adfe5d2e5cf5187a45a6ebccd931334e706c8bee57ec0264736f6c634300080a0033",
  "immutableReferences": {},
  "source": "pragma solidity ^0.8.10;\r\n\r\ncontract FirstContract {\r\n    uint value = 18112021;\r\n    address sender; \r\n    \r\n    function getValue() external view returns(uint) { \r\n        return value;\r\n    }\r\n    \r\n    function setValue(uint _value) external {\r\n        sender = msg.sender;\r\n        value = _value;\r\n    }\r\n    \r\n    function getMsgSender() external view returns(address) { \r\n        return sender;\r\n    }\r\n    \r\n    \r\n}",
  "sourcePath": "/mnt/c/Users/ankit/Documents/CHAINLINK/chain-link-hackathon/dapp/contracts/dummyContract.sol",
  "compiler": {
    "name": "solc",
    "version": "0.8.10+commit.fc410830.Emscripten.clang"
  },
  "schemaVersion": "3.4.3",
  "updatedAt": "2021-11-25T15:29:29.959Z",
  "devdoc": {
    "kind": "dev",
    "methods": {},
    "version": 1
  },
  "userdoc": {
    "kind": "user",
    "methods": {},
    "version": 1
  }
}