{
  "contractName": "MarketPlace",
  "abi": [
    {
      "inputs": [
        {
          "internalType": "address",
          "name": "owner_",
          "type": "address"
        }
      ],
      "stateMutability": "nonpayable",
      "type": "constructor"
    },
    {
      "inputs": [],
      "name": "contentToken",
      "outputs": [
        {
          "internalType": "address",
          "name": "",
          "type": "address"
        }
      ],
      "stateMutability": "view",
      "type": "function"
    },
    {
      "inputs": [],
      "name": "owner",
      "outputs": [
        {
          "internalType": "address",
          "name": "",
          "type": "address"
        }
      ],
      "stateMutability": "view",
      "type": "function"
    },
    {
      "inputs": [
        {
          "internalType": "address",
          "name": "contentToken_",
          "type": "address"
        }
      ],
      "name": "setContentTokenAddress",
      "outputs": [],
      "stateMutability": "nonpayable",
      "type": "function"
    },
    {
      "inputs": [
        {
          "internalType": "uint256",
          "name": "tokenID",
          "type": "uint256"
        }
      ],
      "name": "buyToken",
      "outputs": [],
      "stateMutability": "payable",
      "type": "function"
    }
  ],
  "bytecode": "0x608060405234801561001057600080fd5b50604051610978380380610978833981810160405281019061003291906100dc565b80600160006101000a81548173ffffffffffffffffffffffffffffffffffffffff021916908373ffffffffffffffffffffffffffffffffffffffff16021790555050610109565b600080fd5b600073ffffffffffffffffffffffffffffffffffffffff82169050919050565b60006100a98261007e565b9050919050565b6100b98161009e565b81146100c457600080fd5b50565b6000815190506100d6816100b0565b92915050565b6000602082840312156100f2576100f1610079565b5b6000610100848285016100c7565b91505092915050565b610860806101186000396000f3fe60806040526004361061003f5760003560e01c80630b992587146100445780632d296bf11461006f5780638da5cb5b1461008b57806390430035146100b6575b600080fd5b34801561005057600080fd5b506100596100df565b604051610066919061044e565b60405180910390f35b610089600480360381019061008491906104a4565b610103565b005b34801561009757600080fd5b506100a0610314565b6040516100ad919061044e565b60405180910390f35b3480156100c257600080fd5b506100dd60048036038101906100d891906104fd565b61033a565b005b60008054906101000a900473ffffffffffffffffffffffffffffffffffffffff1681565b60008060009054906101000a900473ffffffffffffffffffffffffffffffffffffffff1690506000808273ffffffffffffffffffffffffffffffffffffffff1663db7bb412856040518263ffffffff1660e01b81526004016101659190610539565b6040805180830381865afa158015610181573d6000803e3d6000fd5b505050506040513d601f19601f820116820180604052508101906101a5919061057e565b91509150813410156101ec576040517f08c379a00000000000000000000000000000000000000000000000000000000081526004016101e39061061b565b60405180910390fd5b6000808273ffffffffffffffffffffffffffffffffffffffff16346040516102139061066c565b60006040518083038185875af1925050503d8060008114610250576040519150601f19603f3d011682016040523d82523d6000602084013e610255565b606091505b50915091508161029a576040517f08c379a0000000000000000000000000000000000000000000000000000000008152600401610291906106cd565b60405180910390fd5b8473ffffffffffffffffffffffffffffffffffffffff1663f242432a84338960016040518563ffffffff1660e01b81526004016102da9493929190610766565b600060405180830381600087803b1580156102f457600080fd5b505af1158015610308573d6000803e3d6000fd5b50505050505050505050565b600160009054906101000a900473ffffffffffffffffffffffffffffffffffffffff1681565b600160009054906101000a900473ffffffffffffffffffffffffffffffffffffffff1673ffffffffffffffffffffffffffffffffffffffff163373ffffffffffffffffffffffffffffffffffffffff16146103ca576040517f08c379a00000000000000000000000000000000000000000000000000000000081526004016103c19061080a565b60405180910390fd5b806000806101000a81548173ffffffffffffffffffffffffffffffffffffffff021916908373ffffffffffffffffffffffffffffffffffffffff16021790555050565b600073ffffffffffffffffffffffffffffffffffffffff82169050919050565b60006104388261040d565b9050919050565b6104488161042d565b82525050565b6000602082019050610463600083018461043f565b92915050565b600080fd5b6000819050919050565b6104818161046e565b811461048c57600080fd5b50565b60008135905061049e81610478565b92915050565b6000602082840312156104ba576104b9610469565b5b60006104c88482850161048f565b91505092915050565b6104da8161042d565b81146104e557600080fd5b50565b6000813590506104f7816104d1565b92915050565b60006020828403121561051357610512610469565b5b6000610521848285016104e8565b91505092915050565b6105338161046e565b82525050565b600060208201905061054e600083018461052a565b92915050565b60008151905061056381610478565b92915050565b600081519050610578816104d1565b92915050565b6000806040838503121561059557610594610469565b5b60006105a385828601610554565b92505060206105b485828601610569565b9150509250929050565b600082825260208201905092915050565b7f56616c7565206c657373207468616e20746f6b656e2070726963650000000000600082015250565b6000610605601b836105be565b9150610610826105cf565b602082019050919050565b60006020820190508181036000830152610634816105f8565b9050919050565b600081905092915050565b50565b600061065660008361063b565b915061066182610646565b600082019050919050565b600061067782610649565b9150819050919050565b7f4661696c656420746f2073656e64204574686572000000000000000000000000600082015250565b60006106b76014836105be565b91506106c282610681565b602082019050919050565b600060208201905081810360008301526106e6816106aa565b9050919050565b6000819050919050565b6000819050919050565b600061071c610717610712846106ed565b6106f7565b61046e565b9050919050565b61072c81610701565b82525050565b600082825260208201905092915050565b6000610750600083610732565b915061075b82610646565b600082019050919050565b600060a08201905061077b600083018761043f565b610788602083018661043f565b610795604083018561052a565b6107a26060830184610723565b81810360808301526107b381610743565b905095945050505050565b7f6f6e6c79206f776e65722063616e2063616c6c20746869730000000000000000600082015250565b60006107f46018836105be565b91506107ff826107be565b602082019050919050565b60006020820190508181036000830152610823816107e7565b905091905056fea26469706673582212209afae9ba24d494939bf4c3f89c6660bd1c19318febd5b33c4004570401d1799e64736f6c634300080a0033",
  "immutableReferences": {},
  "source": "// contracts/GameItems.sol\r\n// SPDX-License-Identifier: MIT\r\npragma solidity ^0.8.10;\r\n\r\nimport \"@openzeppelin/contracts/token/ERC1155/ERC1155.sol\";\r\n\r\ncontract ContentToken is ERC1155 {\r\n    address public owner;\r\n    address public marketPlace;\r\n    uint256 public totalTypesOfTokens;\r\n    \r\n    mapping(uint256 => address) tokenCreator;\r\n    mapping(uint256 => string) gatedURLs;\r\n    mapping(uint256 => uint256) tokenPrice;\r\n    \r\n    modifier onlyOwner() {\r\n        require(msg.sender == owner, \"only owner can call this\");\r\n        _;\r\n    }\r\n    \r\n    modifier onlyCreator(uint256 tokenId){\r\n        require(msg.sender == tokenCreator[tokenId], \"only creator can call this\");\r\n        _;\r\n    }\r\n\r\n    constructor(address owner_, address marketPlace_) ERC1155(\"\") {\r\n        owner = owner_;\r\n        marketPlace = marketPlace_;\r\n        totalTypesOfTokens = 0;\r\n    }\r\n    \r\n    function addNewToken(uint256 initialSupply, uint256 price) public {\r\n        totalTypesOfTokens++;\r\n        uint256 tokenId = totalTypesOfTokens;\r\n        tokenCreator[tokenId] = msg.sender;\r\n        tokenPrice[tokenId] = price;\r\n\r\n        _mint(msg.sender, tokenId, initialSupply, \"\");\r\n        setApprovalForAll(marketPlace, true);\r\n    }\r\n    \r\n    function setGatedURI(uint256 tokenID, string memory uri) public onlyOwner{\r\n        gatedURLs[tokenID] = uri;\r\n    }\r\n    \r\n    function getGatedURI(uint256 tokenID) public view returns(string memory){\r\n        return gatedURLs[tokenID];\r\n    }\r\n    \r\n    function addMoreSupply(uint256 tokenID, uint256 additionalSupply) public onlyCreator(tokenID){\r\n        _mint(msg.sender, tokenID, additionalSupply, \"\");\r\n    }\r\n    \r\n    function getTokenPriceAndCreator(uint256 tokenID) external view returns(uint256, address){\r\n        require (tokenPrice[tokenID] > 0, \"Token does not exist\");\r\n        return (tokenPrice[tokenID], tokenCreator[tokenID]);\r\n    }\r\n}\r\n\r\n\r\ncontract MarketPlace {\r\n    address public contentToken;\r\n    address public owner;\r\n    \r\n    modifier onlyOwner() {\r\n        require(msg.sender == owner, \"only owner can call this\");\r\n        _;\r\n    }\r\n    \r\n    constructor(address owner_) {\r\n        owner = owner_;\r\n    }\r\n    \r\n    function setContentTokenAddress(address contentToken_) public onlyOwner{\r\n        contentToken = contentToken_;\r\n    }\r\n    \r\n    function buyToken(uint256 tokenID) external payable{\r\n        ContentToken c = ContentToken(contentToken);\r\n        (uint256 tokenPrice, address creator) = c.getTokenPriceAndCreator(tokenID);\r\n        \r\n        require(msg.value >= tokenPrice, \"Value less than token price\");\r\n        (bool sent, bytes memory data) = creator.call{value: msg.value}(\"\");\r\n        require(sent, \"Failed to send Ether\");\r\n        c.safeTransferFrom(creator, msg.sender, tokenID, 1, \"\");\r\n    }\r\n}",
  "sourcePath": "/mnt/c/Users/ankit/Documents/CHAINLINK/chain-link-hackathon/dapp/contracts/token.sol",
  "compiler": {
    "name": "solc",
    "version": "0.8.10+commit.fc410830.Emscripten.clang"
  },
  "schemaVersion": "3.4.3",
  "updatedAt": "2021-11-20T05:39:26.783Z",
  "devdoc": {
    "kind": "dev",
    "methods": {},
    "version": 1
  },
  "userdoc": {
    "kind": "user",
    "methods": {},
    "version": 1
  }
}